{
  "address": "0x1D13F33828371296F23185B3E08881d055577766",
  "abi": [
    {
      "inputs": [],
      "stateMutability": "nonpayable",
      "type": "constructor"
    },
    {
      "anonymous": false,
      "inputs": [
        {
          "indexed": true,
          "internalType": "address",
          "name": "owner",
          "type": "address"
        },
        {
          "indexed": true,
          "internalType": "address",
          "name": "operator",
          "type": "address"
        },
        {
          "indexed": false,
          "internalType": "bool",
          "name": "approved",
          "type": "bool"
        }
      ],
      "name": "ApprovalForAll",
      "type": "event"
    },
    {
      "anonymous": false,
      "inputs": [
        {
          "indexed": true,
          "internalType": "bytes32",
          "name": "node",
          "type": "bytes32"
        },
        {
          "indexed": true,
          "internalType": "bytes32",
          "name": "label",
          "type": "bytes32"
        },
        {
          "indexed": false,
          "internalType": "address",
          "name": "owner",
          "type": "address"
        }
      ],
      "name": "NewOwner",
      "type": "event"
    },
    {
      "anonymous": false,
      "inputs": [
        {
          "indexed": true,
          "internalType": "bytes32",
          "name": "node",
          "type": "bytes32"
        },
        {
          "indexed": false,
          "internalType": "address",
          "name": "resolver",
          "type": "address"
        }
      ],
      "name": "NewResolver",
      "type": "event"
    },
    {
      "anonymous": false,
      "inputs": [
        {
          "indexed": true,
          "internalType": "bytes32",
          "name": "node",
          "type": "bytes32"
        },
        {
          "indexed": false,
          "internalType": "uint64",
          "name": "ttl",
          "type": "uint64"
        }
      ],
      "name": "NewTTL",
      "type": "event"
    },
    {
      "anonymous": false,
      "inputs": [
        {
          "indexed": true,
          "internalType": "bytes32",
          "name": "node",
          "type": "bytes32"
        },
        {
          "indexed": false,
          "internalType": "address",
          "name": "owner",
          "type": "address"
        }
      ],
      "name": "Transfer",
      "type": "event"
    },
    {
      "inputs": [
        {
          "internalType": "address",
          "name": "owner",
          "type": "address"
        },
        {
          "internalType": "address",
          "name": "operator",
          "type": "address"
        }
      ],
      "name": "isApprovedForAll",
      "outputs": [
        {
          "internalType": "bool",
          "name": "",
          "type": "bool"
        }
      ],
      "stateMutability": "view",
      "type": "function"
    },
    {
      "inputs": [
        {
          "internalType": "bytes32",
          "name": "node",
          "type": "bytes32"
        }
      ],
      "name": "owner",
      "outputs": [
        {
          "internalType": "address",
          "name": "",
          "type": "address"
        }
      ],
      "stateMutability": "view",
      "type": "function"
    },
    {
      "inputs": [
        {
          "internalType": "bytes32",
          "name": "node",
          "type": "bytes32"
        }
      ],
      "name": "recordExists",
      "outputs": [
        {
          "internalType": "bool",
          "name": "",
          "type": "bool"
        }
      ],
      "stateMutability": "view",
      "type": "function"
    },
    {
      "inputs": [
        {
          "internalType": "bytes32",
          "name": "node",
          "type": "bytes32"
        }
      ],
      "name": "resolver",
      "outputs": [
        {
          "internalType": "address",
          "name": "",
          "type": "address"
        }
      ],
      "stateMutability": "view",
      "type": "function"
    },
    {
      "inputs": [
        {
          "internalType": "address",
          "name": "operator",
          "type": "address"
        },
        {
          "internalType": "bool",
          "name": "approved",
          "type": "bool"
        }
      ],
      "name": "setApprovalForAll",
      "outputs": [],
      "stateMutability": "nonpayable",
      "type": "function"
    },
    {
      "inputs": [
        {
          "internalType": "bytes32",
          "name": "node",
          "type": "bytes32"
        },
        {
          "internalType": "address",
          "name": "owner",
          "type": "address"
        }
      ],
      "name": "setOwner",
      "outputs": [],
      "stateMutability": "nonpayable",
      "type": "function"
    },
    {
      "inputs": [
        {
          "internalType": "bytes32",
          "name": "node",
          "type": "bytes32"
        },
        {
          "internalType": "address",
          "name": "owner",
          "type": "address"
        },
        {
          "internalType": "address",
          "name": "resolver",
          "type": "address"
        },
        {
          "internalType": "uint64",
          "name": "ttl",
          "type": "uint64"
        }
      ],
      "name": "setRecord",
      "outputs": [],
      "stateMutability": "nonpayable",
      "type": "function"
    },
    {
      "inputs": [
        {
          "internalType": "bytes32",
          "name": "node",
          "type": "bytes32"
        },
        {
          "internalType": "address",
          "name": "resolver",
          "type": "address"
        }
      ],
      "name": "setResolver",
      "outputs": [],
      "stateMutability": "nonpayable",
      "type": "function"
    },
    {
      "inputs": [
        {
          "internalType": "bytes32",
          "name": "node",
          "type": "bytes32"
        },
        {
          "internalType": "bytes32",
          "name": "label",
          "type": "bytes32"
        },
        {
          "internalType": "address",
          "name": "owner",
          "type": "address"
        }
      ],
      "name": "setSubnodeOwner",
      "outputs": [
        {
          "internalType": "bytes32",
          "name": "",
          "type": "bytes32"
        }
      ],
      "stateMutability": "nonpayable",
      "type": "function"
    },
    {
      "inputs": [
        {
          "internalType": "bytes32",
          "name": "node",
          "type": "bytes32"
        },
        {
          "internalType": "bytes32",
          "name": "label",
          "type": "bytes32"
        },
        {
          "internalType": "address",
          "name": "owner",
          "type": "address"
        },
        {
          "internalType": "address",
          "name": "resolver",
          "type": "address"
        },
        {
          "internalType": "uint64",
          "name": "ttl",
          "type": "uint64"
        }
      ],
      "name": "setSubnodeRecord",
      "outputs": [],
      "stateMutability": "nonpayable",
      "type": "function"
    },
    {
      "inputs": [
        {
          "internalType": "bytes32",
          "name": "node",
          "type": "bytes32"
        },
        {
          "internalType": "uint64",
          "name": "ttl",
          "type": "uint64"
        }
      ],
      "name": "setTTL",
      "outputs": [],
      "stateMutability": "nonpayable",
      "type": "function"
    },
    {
      "inputs": [
        {
          "internalType": "bytes32",
          "name": "node",
          "type": "bytes32"
        }
      ],
      "name": "ttl",
      "outputs": [
        {
          "internalType": "uint64",
          "name": "",
          "type": "uint64"
        }
      ],
      "stateMutability": "view",
      "type": "function"
    }
  ],
  "transactionHash": "0x60b8051fbdde387e400e4c2b53651050c8751da30f66f5e801d3a98e62edb7eb",
  "args": [],
  "numDeployments": 1,
  "solcInputHash": "466e66eb81dc201870d815f33ba05086",
  "bytecode": "0x608060405234801561001057600080fd5b5060008080526020527fad3228b676f7d3cd4284a5443f17f1962b36e491b30a40b2405849e597ba5fb580546001600160a01b03191633179055610c1b806100596000396000f3fe608060405234801561001057600080fd5b50600436106100d45760003560e01c80635b0fc9c311610081578063cf4088231161005b578063cf4088231461022f578063e985e9c514610242578063f79fe5381461029b57600080fd5b80635b0fc9c3146101f65780635ef2c7f014610209578063a22cb4651461021c57600080fd5b806314ab9038116100b257806314ab90381461017057806316a25cbd146101855780631896f70a146101e357600080fd5b80630178b8bf146100d957806302571be31461013c57806306ab59231461014f575b600080fd5b6101126100e73660046109fd565b60009081526020819052604090206001015473ffffffffffffffffffffffffffffffffffffffff1690565b60405173ffffffffffffffffffffffffffffffffffffffff90911681526020015b60405180910390f35b61011261014a3660046109fd565b6102d3565b61016261015d366004610a3f565b61030f565b604051908152602001610133565b61018361017e366004610a8c565b61046c565b005b6101ca6101933660046109fd565b60009081526020819052604090206001015474010000000000000000000000000000000000000000900467ffffffffffffffff1690565b60405167ffffffffffffffff9091168152602001610133565b6101836101f1366004610ab8565b61057e565b610183610204366004610ab8565b61068f565b610183610217366004610adb565b61079a565b61018361022a366004610b32565b6107bc565b61018361023d366004610b6e565b610853565b61028b610250366004610bbb565b73ffffffffffffffffffffffffffffffffffffffff918216600090815260016020908152604080832093909416825291909152205460ff1690565b6040519015158152602001610133565b61028b6102a93660046109fd565b60009081526020819052604090205473ffffffffffffffffffffffffffffffffffffffff16151590565b60008181526020819052604081205473ffffffffffffffffffffffffffffffffffffffff16308114156103095750600092915050565b92915050565b600083815260208190526040812054849073ffffffffffffffffffffffffffffffffffffffff1633811480610374575073ffffffffffffffffffffffffffffffffffffffff8116600090815260016020908152604080832033845290915290205460ff165b61037d57600080fd5b6040805160208101889052908101869052600090606001604080517fffffffffffffffffffffffffffffffffffffffffffffffffffffffffffffffe08184030181529181528151602092830120600081815292839052912080547fffffffffffffffffffffffff00000000000000000000000000000000000000001673ffffffffffffffffffffffffffffffffffffffff8816179055905060405173ffffffffffffffffffffffffffffffffffffffff86168152869088907fce0457fe73731f824cc272376169235128c118b49d344817417c6d108d155e829060200160405180910390a39695505050505050565b600082815260208190526040902054829073ffffffffffffffffffffffffffffffffffffffff16338114806104d1575073ffffffffffffffffffffffffffffffffffffffff8116600090815260016020908152604080832033845290915290205460ff165b6104da57600080fd5b60405167ffffffffffffffff8416815284907f1d4f9bbfc9cab89d66e1a1562f2233ccbf1308cb4f63de2ead5787adddb8fa689060200160405180910390a25050600091825260208290526040909120600101805467ffffffffffffffff90921674010000000000000000000000000000000000000000027fffffffff0000000000000000ffffffffffffffffffffffffffffffffffffffff909216919091179055565b600082815260208190526040902054829073ffffffffffffffffffffffffffffffffffffffff16338114806105e3575073ffffffffffffffffffffffffffffffffffffffff8116600090815260016020908152604080832033845290915290205460ff165b6105ec57600080fd5b60405173ffffffffffffffffffffffffffffffffffffffff8416815284907f335721b01866dc23fbee8b6b2c7b1e14d6f05c28cd35a2c934239f94095602a09060200160405180910390a2505060009182526020829052604090912060010180547fffffffffffffffffffffffff00000000000000000000000000000000000000001673ffffffffffffffffffffffffffffffffffffffff909216919091179055565b600082815260208190526040902054829073ffffffffffffffffffffffffffffffffffffffff16338114806106f4575073ffffffffffffffffffffffffffffffffffffffff8116600090815260016020908152604080832033845290915290205460ff165b6106fd57600080fd5b600084815260208190526040902080547fffffffffffffffffffffffff00000000000000000000000000000000000000001673ffffffffffffffffffffffffffffffffffffffff851617905560405173ffffffffffffffffffffffffffffffffffffffff8416815284907fd4735d920b0f87494915f556dd9b54c8f309026070caea5c737245152564d2669060200160405180910390a250505050565b60006107a786868661030f565b90506107b481848461086e565b505050505050565b33600081815260016020908152604080832073ffffffffffffffffffffffffffffffffffffffff87168085529083529281902080547fffffffffffffffffffffffffffffffffffffffffffffffffffffffffffffff001686151590811790915590519081529192917f17307eab39ab6107e8899845ad3d59bd9653f200f220920489ca2b5937696c31910160405180910390a35050565b61085d848461068f565b61086884838361086e565b50505050565b60008381526020819052604090206001015473ffffffffffffffffffffffffffffffffffffffff838116911614610926576000838152602081815260409182902060010180547fffffffffffffffffffffffff00000000000000000000000000000000000000001673ffffffffffffffffffffffffffffffffffffffff8616908117909155915191825284917f335721b01866dc23fbee8b6b2c7b1e14d6f05c28cd35a2c934239f94095602a0910160405180910390a25b60008381526020819052604090206001015467ffffffffffffffff8281167401000000000000000000000000000000000000000090920416146109f8576000838152602081815260409182902060010180547fffffffff0000000000000000ffffffffffffffffffffffffffffffffffffffff167401000000000000000000000000000000000000000067ffffffffffffffff861690810291909117909155915191825284917f1d4f9bbfc9cab89d66e1a1562f2233ccbf1308cb4f63de2ead5787adddb8fa68910160405180910390a25b505050565b600060208284031215610a0f57600080fd5b5035919050565b803573ffffffffffffffffffffffffffffffffffffffff81168114610a3a57600080fd5b919050565b600080600060608486031215610a5457600080fd5b8335925060208401359150610a6b60408501610a16565b90509250925092565b803567ffffffffffffffff81168114610a3a57600080fd5b60008060408385031215610a9f57600080fd5b82359150610aaf60208401610a74565b90509250929050565b60008060408385031215610acb57600080fd5b82359150610aaf60208401610a16565b600080600080600060a08688031215610af357600080fd5b8535945060208601359350610b0a60408701610a16565b9250610b1860608701610a16565b9150610b2660808701610a74565b90509295509295909350565b60008060408385031215610b4557600080fd5b610b4e83610a16565b915060208301358015158114610b6357600080fd5b809150509250929050565b60008060008060808587031215610b8457600080fd5b84359350610b9460208601610a16565b9250610ba260408601610a16565b9150610bb060608601610a74565b905092959194509250565b60008060408385031215610bce57600080fd5b610bd783610a16565b9150610aaf60208401610a1656fea264697066735822122031a5d2aedb19b63e8c7ce5f8541b23b7d5b2445c03ef961c81750fe7611f0c9364736f6c634300080c0033",
  "devdoc": {
    "kind": "dev",
    "methods": {
      "constructor": {
        "details": "Constructs a new ENS registrar."
      },
      "isApprovedForAll(address,address)": {
        "details": "Query if an address is an authorized operator for another address.",
        "params": {
          "operator": "The address that acts on behalf of the owner.",
          "owner": "The address that owns the records."
        },
        "returns": {
          "_0": "True if `operator` is an approved operator for `owner`, false otherwise."
        }
      },
      "owner(bytes32)": {
        "details": "Returns the address that owns the specified node.",
        "params": {
          "node": "The specified node."
        },
        "returns": {
          "_0": "address of the owner."
        }
      },
      "recordExists(bytes32)": {
        "details": "Returns whether a record has been imported to the registry.",
        "params": {
          "node": "The specified node."
        },
        "returns": {
          "_0": "Bool if record exists"
        }
      },
      "resolver(bytes32)": {
        "details": "Returns the address of the resolver for the specified node.",
        "params": {
          "node": "The specified node."
        },
        "returns": {
          "_0": "address of the resolver."
        }
      },
      "setApprovalForAll(address,bool)": {
        "details": "Enable or disable approval for a third party (\"operator\") to manage  all of `msg.sender`'s ENS records. Emits the ApprovalForAll event.",
        "params": {
          "approved": "True if the operator is approved, false to revoke approval.",
          "operator": "Address to add to the set of authorized operators."
        }
      },
      "setOwner(bytes32,address)": {
        "details": "Transfers ownership of a node to a new address. May only be called by the current owner of the node.",
        "params": {
          "node": "The node to transfer ownership of.",
          "owner": "The address of the new owner."
        }
      },
      "setRecord(bytes32,address,address,uint64)": {
        "details": "Sets the record for a node.",
        "params": {
          "node": "The node to update.",
          "owner": "The address of the new owner.",
          "resolver": "The address of the resolver.",
          "ttl": "The TTL in seconds."
        }
      },
      "setResolver(bytes32,address)": {
        "details": "Sets the resolver address for the specified node.",
        "params": {
          "node": "The node to update.",
          "resolver": "The address of the resolver."
        }
      },
      "setSubnodeOwner(bytes32,bytes32,address)": {
        "details": "Transfers ownership of a subnode keccak256(node, label) to a new address. May only be called by the owner of the parent node.",
        "params": {
          "label": "The hash of the label specifying the subnode.",
          "node": "The parent node.",
          "owner": "The address of the new owner."
        }
      },
      "setSubnodeRecord(bytes32,bytes32,address,address,uint64)": {
        "details": "Sets the record for a subnode.",
        "params": {
          "label": "The hash of the label specifying the subnode.",
          "node": "The parent node.",
          "owner": "The address of the new owner.",
          "resolver": "The address of the resolver.",
          "ttl": "The TTL in seconds."
        }
      },
      "setTTL(bytes32,uint64)": {
        "details": "Sets the TTL for the specified node.",
        "params": {
          "node": "The node to update.",
          "ttl": "The TTL in seconds."
        }
      },
      "ttl(bytes32)": {
        "details": "Returns the TTL of a node, and any records associated with it.",
        "params": {
          "node": "The specified node."
        },
        "returns": {
          "_0": "ttl of the node."
        }
      }
    },
    "version": 1
  },
  "userdoc": {
    "kind": "user",
    "methods": {},
    "notice": "The ENS registry contract.",
    "version": 1
  },
  "storageLayout": {
    "storage": [
      {
        "astId": 12358,
        "contract": "contracts/registry/ENSRegistry.sol:ENSRegistry",
        "label": "records",
        "offset": 0,
        "slot": "0",
        "type": "t_mapping(t_bytes32,t_struct(Record)12353_storage)"
      },
      {
        "astId": 12364,
        "contract": "contracts/registry/ENSRegistry.sol:ENSRegistry",
        "label": "operators",
        "offset": 0,
        "slot": "1",
        "type": "t_mapping(t_address,t_mapping(t_address,t_bool))"
      }
    ],
    "types": {
      "t_address": {
        "encoding": "inplace",
        "label": "address",
        "numberOfBytes": "20"
      },
      "t_bool": {
        "encoding": "inplace",
        "label": "bool",
        "numberOfBytes": "1"
      },
      "t_bytes32": {
        "encoding": "inplace",
        "label": "bytes32",
        "numberOfBytes": "32"
      },
      "t_mapping(t_address,t_bool)": {
        "encoding": "mapping",
        "key": "t_address",
        "label": "mapping(address => bool)",
        "numberOfBytes": "32",
        "value": "t_bool"
      },
      "t_mapping(t_address,t_mapping(t_address,t_bool))": {
        "encoding": "mapping",
        "key": "t_address",
        "label": "mapping(address => mapping(address => bool))",
        "numberOfBytes": "32",
        "value": "t_mapping(t_address,t_bool)"
      },
      "t_mapping(t_bytes32,t_struct(Record)12353_storage)": {
        "encoding": "mapping",
        "key": "t_bytes32",
        "label": "mapping(bytes32 => struct ENSRegistry.Record)",
        "numberOfBytes": "32",
        "value": "t_struct(Record)12353_storage"
      },
      "t_struct(Record)12353_storage": {
        "encoding": "inplace",
        "label": "struct ENSRegistry.Record",
        "members": [
          {
            "astId": 12348,
            "contract": "contracts/registry/ENSRegistry.sol:ENSRegistry",
            "label": "owner",
            "offset": 0,
            "slot": "0",
            "type": "t_address"
          },
          {
            "astId": 12350,
            "contract": "contracts/registry/ENSRegistry.sol:ENSRegistry",
            "label": "resolver",
            "offset": 0,
            "slot": "1",
            "type": "t_address"
          },
          {
            "astId": 12352,
            "contract": "contracts/registry/ENSRegistry.sol:ENSRegistry",
            "label": "ttl",
            "offset": 20,
            "slot": "1",
            "type": "t_uint64"
          }
        ],
        "numberOfBytes": "64"
      },
      "t_uint64": {
        "encoding": "inplace",
        "label": "uint64",
        "numberOfBytes": "8"
      }
    }
  }
}