{
  "address": "0x59b670e9fA9D0A427751Af201D676719a970857b",
  "abi": [
    {
      "inputs": [
        {
          "internalType": "contract BaseRegistrarImplementation",
          "name": "_base",
          "type": "address"
        },
        {
          "internalType": "contract PriceOracle",
          "name": "_prices",
          "type": "address"
        },
        {
          "internalType": "uint256",
          "name": "_minCommitmentAge",
          "type": "uint256"
        },
        {
          "internalType": "uint256",
          "name": "_maxCommitmentAge",
          "type": "uint256"
        }
      ],
      "stateMutability": "nonpayable",
      "type": "constructor"
    },
    {
      "anonymous": false,
      "inputs": [
        {
          "indexed": false,
          "internalType": "string",
          "name": "name",
          "type": "string"
        },
        {
          "indexed": true,
          "internalType": "bytes32",
          "name": "label",
          "type": "bytes32"
        },
        {
          "indexed": true,
          "internalType": "address",
          "name": "owner",
          "type": "address"
        },
        {
          "indexed": false,
          "internalType": "uint256",
          "name": "cost",
          "type": "uint256"
        },
        {
          "indexed": false,
          "internalType": "uint256",
          "name": "expires",
          "type": "uint256"
        }
      ],
      "name": "NameRegistered",
      "type": "event"
    },
    {
      "anonymous": false,
      "inputs": [
        {
          "indexed": false,
          "internalType": "string",
          "name": "name",
          "type": "string"
        },
        {
          "indexed": true,
          "internalType": "bytes32",
          "name": "label",
          "type": "bytes32"
        },
        {
          "indexed": false,
          "internalType": "uint256",
          "name": "cost",
          "type": "uint256"
        },
        {
          "indexed": false,
          "internalType": "uint256",
          "name": "expires",
          "type": "uint256"
        }
      ],
      "name": "NameRenewed",
      "type": "event"
    },
    {
      "anonymous": false,
      "inputs": [
        {
          "indexed": true,
          "internalType": "address",
          "name": "oracle",
          "type": "address"
        }
      ],
      "name": "NewPriceOracle",
      "type": "event"
    },
    {
      "anonymous": false,
      "inputs": [
        {
          "indexed": true,
          "internalType": "address",
          "name": "previousOwner",
          "type": "address"
        },
        {
          "indexed": true,
          "internalType": "address",
          "name": "newOwner",
          "type": "address"
        }
      ],
      "name": "OwnershipTransferred",
      "type": "event"
    },
    {
      "inputs": [],
      "name": "MIN_REGISTRATION_DURATION",
      "outputs": [
        {
          "internalType": "uint256",
          "name": "",
          "type": "uint256"
        }
      ],
      "stateMutability": "view",
      "type": "function"
    },
    {
      "inputs": [
        {
          "internalType": "string",
          "name": "name",
          "type": "string"
        }
      ],
      "name": "available",
      "outputs": [
        {
          "internalType": "bool",
          "name": "",
          "type": "bool"
        }
      ],
      "stateMutability": "view",
      "type": "function"
    },
    {
      "inputs": [
        {
          "internalType": "bytes32",
          "name": "commitment",
          "type": "bytes32"
        }
      ],
      "name": "commit",
      "outputs": [],
      "stateMutability": "nonpayable",
      "type": "function"
    },
    {
      "inputs": [
        {
          "internalType": "bytes32",
          "name": "",
          "type": "bytes32"
        }
      ],
      "name": "commitments",
      "outputs": [
        {
          "internalType": "uint256",
          "name": "",
          "type": "uint256"
        }
      ],
      "stateMutability": "view",
      "type": "function"
    },
    {
      "inputs": [
        {
          "internalType": "string",
          "name": "name",
          "type": "string"
        },
        {
          "internalType": "address",
          "name": "owner",
          "type": "address"
        },
        {
          "internalType": "bytes32",
          "name": "secret",
          "type": "bytes32"
        }
      ],
      "name": "makeCommitment",
      "outputs": [
        {
          "internalType": "bytes32",
          "name": "",
          "type": "bytes32"
        }
      ],
      "stateMutability": "pure",
      "type": "function"
    },
    {
      "inputs": [
        {
          "internalType": "string",
          "name": "name",
          "type": "string"
        },
        {
          "internalType": "address",
          "name": "owner",
          "type": "address"
        },
        {
          "internalType": "bytes32",
          "name": "secret",
          "type": "bytes32"
        },
        {
          "internalType": "address",
          "name": "resolver",
          "type": "address"
        },
        {
          "internalType": "address",
          "name": "addr",
          "type": "address"
        }
      ],
      "name": "makeCommitmentWithConfig",
      "outputs": [
        {
          "internalType": "bytes32",
          "name": "",
          "type": "bytes32"
        }
      ],
      "stateMutability": "pure",
      "type": "function"
    },
    {
      "inputs": [],
      "name": "maxCommitmentAge",
      "outputs": [
        {
          "internalType": "uint256",
          "name": "",
          "type": "uint256"
        }
      ],
      "stateMutability": "view",
      "type": "function"
    },
    {
      "inputs": [],
      "name": "minCommitmentAge",
      "outputs": [
        {
          "internalType": "uint256",
          "name": "",
          "type": "uint256"
        }
      ],
      "stateMutability": "view",
      "type": "function"
    },
    {
      "inputs": [],
      "name": "owner",
      "outputs": [
        {
          "internalType": "address",
          "name": "",
          "type": "address"
        }
      ],
      "stateMutability": "view",
      "type": "function"
    },
    {
      "inputs": [
        {
          "internalType": "string",
          "name": "name",
          "type": "string"
        },
        {
          "internalType": "address",
          "name": "owner",
          "type": "address"
        },
        {
          "internalType": "uint256",
          "name": "duration",
          "type": "uint256"
        },
        {
          "internalType": "bytes32",
          "name": "secret",
          "type": "bytes32"
        }
      ],
      "name": "register",
      "outputs": [],
      "stateMutability": "payable",
      "type": "function"
    },
    {
      "inputs": [
        {
          "internalType": "string",
          "name": "name",
          "type": "string"
        },
        {
          "internalType": "address",
          "name": "owner",
          "type": "address"
        },
        {
          "internalType": "uint256",
          "name": "duration",
          "type": "uint256"
        },
        {
          "internalType": "bytes32",
          "name": "secret",
          "type": "bytes32"
        },
        {
          "internalType": "address",
          "name": "resolver",
          "type": "address"
        },
        {
          "internalType": "address",
          "name": "addr",
          "type": "address"
        }
      ],
      "name": "registerWithConfig",
      "outputs": [],
      "stateMutability": "payable",
      "type": "function"
    },
    {
      "inputs": [
        {
          "internalType": "string",
          "name": "name",
          "type": "string"
        },
        {
          "internalType": "uint256",
          "name": "duration",
          "type": "uint256"
        }
      ],
      "name": "renew",
      "outputs": [],
      "stateMutability": "payable",
      "type": "function"
    },
    {
      "inputs": [],
      "name": "renounceOwnership",
      "outputs": [],
      "stateMutability": "nonpayable",
      "type": "function"
    },
    {
      "inputs": [
        {
          "internalType": "string",
          "name": "name",
          "type": "string"
        },
        {
          "internalType": "uint256",
          "name": "duration",
          "type": "uint256"
        }
      ],
      "name": "rentPrice",
      "outputs": [
        {
          "internalType": "uint256",
          "name": "",
          "type": "uint256"
        }
      ],
      "stateMutability": "view",
      "type": "function"
    },
    {
      "inputs": [
        {
          "internalType": "uint256",
          "name": "_minCommitmentAge",
          "type": "uint256"
        },
        {
          "internalType": "uint256",
          "name": "_maxCommitmentAge",
          "type": "uint256"
        }
      ],
      "name": "setCommitmentAges",
      "outputs": [],
      "stateMutability": "nonpayable",
      "type": "function"
    },
    {
      "inputs": [
        {
          "internalType": "contract PriceOracle",
          "name": "_prices",
          "type": "address"
        }
      ],
      "name": "setPriceOracle",
      "outputs": [],
      "stateMutability": "nonpayable",
      "type": "function"
    },
    {
      "inputs": [
        {
          "internalType": "bytes4",
          "name": "interfaceID",
          "type": "bytes4"
        }
      ],
      "name": "supportsInterface",
      "outputs": [
        {
          "internalType": "bool",
          "name": "",
          "type": "bool"
        }
      ],
      "stateMutability": "pure",
      "type": "function"
    },
    {
      "inputs": [
        {
          "internalType": "address",
          "name": "newOwner",
          "type": "address"
        }
      ],
      "name": "transferOwnership",
      "outputs": [],
      "stateMutability": "nonpayable",
      "type": "function"
    },
    {
      "inputs": [
        {
          "internalType": "string",
          "name": "name",
          "type": "string"
        }
      ],
      "name": "valid",
      "outputs": [
        {
          "internalType": "bool",
          "name": "",
          "type": "bool"
        }
      ],
      "stateMutability": "pure",
      "type": "function"
    },
    {
      "inputs": [],
      "name": "withdraw",
      "outputs": [],
      "stateMutability": "nonpayable",
      "type": "function"
    }
  ],
  "transactionHash": "0x7839b866ffaee63b6babea7b77f630d2bb81055c5fd2688039a2d2c15c093395",
  "args": [
    "0x68B1D87F95878fE05B998F19b66F4baba5De1aed",
    "0xc6e7DF5E7b4f2A278906862b61205850344D4e7d",
    60,
    86400
  ],
  "numDeployments": 1,
  "solcInputHash": "5e15c453355461e316e74dfad4851795",
  "bytecode": "0x60806040523480156200001157600080fd5b5060405162001d4238038062001d428339810160408190526200003491620000f4565b6200003f336200008b565b8181116200004c57600080fd5b600180546001600160a01b039586166001600160a01b031991821617909155600280549490951693169290921790925560039190915560045562000141565b600080546001600160a01b038381166001600160a01b0319831681178455604051919092169283917f8be0079c531659141344cd1fd0a4f28419497f9722a3daafe3b4186f6b6457e09190a35050565b6001600160a01b0381168114620000f157600080fd5b50565b600080600080608085870312156200010b57600080fd5b84516200011881620000db565b60208601519094506200012b81620000db565b6040860151606090960151949790965092505050565b611bf180620001516000396000f3fe60806040526004361061015f5760003560e01c80638d839ffe116100c0578063ce1e09c011610074578063f2fde38b11610059578063f2fde38b1461037e578063f49826be1461039e578063f7a16963146103be57600080fd5b8063ce1e09c014610348578063f14fcbc81461035e57600080fd5b80639791c097116100a55780639791c097146102f5578063acf1a84114610315578063aeb8ce9b1461032857600080fd5b80638d839ffe146102aa5780638da5cb5b146102c057600080fd5b80637e3244791161011757806383e7f6ff116100fc57806383e7f6ff1461026057806385f6d155146102805780638a95b09f1461029357600080fd5b80637e32447914610213578063839df9451461023357600080fd5b80633d86c52f116101485780633d86c52f146101b0578063530e784f146101de578063715018a6146101fe57600080fd5b806301ffc9a7146101645780633ccfd60b14610199575b600080fd5b34801561017057600080fd5b5061018461017f36600461153c565b6103d1565b60405190151581526020015b60405180910390f35b3480156101a557600080fd5b506101ae6104b6565b005b3480156101bc57600080fd5b506101d06101cb36600461167a565b6104ed565b604051908152602001610190565b3480156101ea57600080fd5b506101ae6101f93660046116fb565b610632565b34801561020a57600080fd5b506101ae6106a9565b34801561021f57600080fd5b506101ae61022e366004611718565b6106bd565b34801561023f57600080fd5b506101d061024e36600461173a565b60056020526000908152604090205481565b34801561026c57600080fd5b506101d061027b366004611753565b6106d0565b6101ae61028e3660046117e1565b6107e5565b34801561029f57600080fd5b506101d06224ea0081565b3480156102b657600080fd5b506101d060035481565b3480156102cc57600080fd5b5060005460405173ffffffffffffffffffffffffffffffffffffffff9091168152602001610190565b34801561030157600080fd5b50610184610310366004611848565b610830565b6101ae61032336600461187d565b610845565b34801561033457600080fd5b50610184610343366004611848565b6109d9565b34801561035457600080fd5b506101d060045481565b34801561036a57600080fd5b506101ae61037936600461173a565b610a8d565b34801561038a57600080fd5b506101ae6103993660046116fb565b610ac7565b3480156103aa57600080fd5b506101d06103b93660046118c9565b610b80565b6101ae6103cc366004611923565b610b90565b60007fffffffff0000000000000000000000000000000000000000000000000000000082167f01ffc9a700000000000000000000000000000000000000000000000000000000148061046457507fffffffff0000000000000000000000000000000000000000000000000000000082167f018fac0600000000000000000000000000000000000000000000000000000000145b806104b057507fffffffff0000000000000000000000000000000000000000000000000000000082167fca27ac4c00000000000000000000000000000000000000000000000000000000145b92915050565b6104be6111a1565b60405133904780156108fc02916000818181858888f193505050501580156104ea573d6000803e3d6000fd5b50565b8451602086012060009073ffffffffffffffffffffffffffffffffffffffff841615801561052f575073ffffffffffffffffffffffffffffffffffffffff8316155b156105955760408051602081018390527fffffffffffffffffffffffffffffffffffffffff000000000000000000000000606089901b16918101919091526054810186905260740160405160208183030381529060405280519060200120915050610629565b73ffffffffffffffffffffffffffffffffffffffff84166105b557600080fd5b60408051602081018390527fffffffffffffffffffffffffffffffffffffffff000000000000000000000000606089811b82169383019390935286831b811660548301529185901b9091166068820152607c8101869052609c01604051602081830303815290604052805190602001209150505b95945050505050565b61063a6111a1565b600280547fffffffffffffffffffffffff00000000000000000000000000000000000000001673ffffffffffffffffffffffffffffffffffffffff83169081179091556040517ff261845a790fe29bbd6631e2ca4a5bdc83e6eed7c3271d9590d97287e00e912390600090a250565b6106b16111a1565b6106bb6000611222565b565b6106c56111a1565b600391909155600455565b815160208301206002546001546040517fd6e4fa86000000000000000000000000000000000000000000000000000000008152600481018490526000939273ffffffffffffffffffffffffffffffffffffffff908116926350e9a7159288929091169063d6e4fa8690602401602060405180830381865afa158015610759573d6000803e3d6000fd5b505050506040513d601f19601f8201168201806040525081019061077d91906119ac565b866040518463ffffffff1660e01b815260040161079c939291906119c5565b602060405180830381865afa1580156107b9573d6000803e3d6000fd5b505050506040513d601f19601f820116820180604052508101906107dd91906119ac565b949350505050565b61082985858080601f016020809104026020016040519081016040528093929190818152602001838380828437600092018290525088935087925086915080610b90565b5050505050565b6000600361083d83611297565b101592915050565b600061088884848080601f0160208091040260200160405190810160405280939291908181526020018383808284376000920191909152508692506106d0915050565b90508034101561089757600080fd5b600084846040516108a9929190611a48565b6040519081900381206001547fc475abff000000000000000000000000000000000000000000000000000000008352600483018290526024830186905290925060009173ffffffffffffffffffffffffffffffffffffffff9091169063c475abff906044016020604051808303816000875af115801561092d573d6000803e3d6000fd5b505050506040513d601f19601f8201168201806040525081019061095191906119ac565b90508234111561099357336108fc6109698534611a87565b6040518115909202916000818181858888f19350505050158015610991573d6000803e3d6000fd5b505b817f3da24c024582931cfaf8267d8ed24d13a82a8068d5bd337d30ec45cea4e506ae878786856040516109c99493929190611a9e565b60405180910390a2505050505050565b805160208201206000906109ec83610830565b8015610a8657506001546040517f96e494e80000000000000000000000000000000000000000000000000000000081526004810183905273ffffffffffffffffffffffffffffffffffffffff909116906396e494e890602401602060405180830381865afa158015610a62573d6000803e3d6000fd5b505050506040513d601f19601f82011682018060405250810190610a869190611afc565b9392505050565b6004546000828152600560205260409020544291610aaa91611b1e565b10610ab457600080fd5b6000908152600560205260409020429055565b610acf6111a1565b73ffffffffffffffffffffffffffffffffffffffff8116610b77576040517f08c379a000000000000000000000000000000000000000000000000000000000815260206004820152602660248201527f4f776e61626c653a206e6577206f776e657220697320746865207a65726f206160448201527f646472657373000000000000000000000000000000000000000000000000000060648201526084015b60405180910390fd5b6104ea81611222565b60006107dd8484846000806104ed565b6000610b9f87878686866104ed565b90506000610bae88878461149e565b885160208a012090915080600073ffffffffffffffffffffffffffffffffffffffff871615611039576001546040517ffca247ac00000000000000000000000000000000000000000000000000000000815260048101849052306024820152604481018b905273ffffffffffffffffffffffffffffffffffffffff9091169063fca247ac906064016020604051808303816000875af1158015610c55573d6000803e3d6000fd5b505050506040513d601f19601f82011682018060405250810190610c7991906119ac565b90506000600160009054906101000a900473ffffffffffffffffffffffffffffffffffffffff1673ffffffffffffffffffffffffffffffffffffffff1663ddf7fcb06040518163ffffffff1660e01b8152600401602060405180830381865afa158015610cea573d6000803e3d6000fd5b505050506040513d601f19601f82011682018060405250810190610d0e91906119ac565b6040805160208101929092528101859052606001604080517fffffffffffffffffffffffffffffffffffffffffffffffffffffffffffffffe081840301815282825280516020918201206001547f3f15457f000000000000000000000000000000000000000000000000000000008552925190945073ffffffffffffffffffffffffffffffffffffffff90921692633f15457f92600480830193928290030181865afa158015610dc2573d6000803e3d6000fd5b505050506040513d601f19601f82011682018060405250810190610de69190611b36565b6040517f1896f70a0000000000000000000000000000000000000000000000000000000081526004810183905273ffffffffffffffffffffffffffffffffffffffff8a811660248301529190911690631896f70a90604401600060405180830381600087803b158015610e5857600080fd5b505af1158015610e6c573d6000803e3d6000fd5b5050505073ffffffffffffffffffffffffffffffffffffffff871615610f15576040517fd5fa2b000000000000000000000000000000000000000000000000000000000081526004810182905273ffffffffffffffffffffffffffffffffffffffff888116602483015289169063d5fa2b0090604401600060405180830381600087803b158015610efc57600080fd5b505af1158015610f10573d6000803e3d6000fd5b505050505b6001546040517f28ed4f6c0000000000000000000000000000000000000000000000000000000081526004810185905273ffffffffffffffffffffffffffffffffffffffff8d81166024830152909116906328ed4f6c90604401600060405180830381600087803b158015610f8957600080fd5b505af1158015610f9d573d6000803e3d6000fd5b50506001546040517f23b872dd00000000000000000000000000000000000000000000000000000000815230600482015273ffffffffffffffffffffffffffffffffffffffff8f811660248301526044820188905290911692506323b872dd9150606401600060405180830381600087803b15801561101b57600080fd5b505af115801561102f573d6000803e3d6000fd5b5050505050611101565b73ffffffffffffffffffffffffffffffffffffffff86161561105a57600080fd5b6001546040517ffca247ac0000000000000000000000000000000000000000000000000000000081526004810184905273ffffffffffffffffffffffffffffffffffffffff8c81166024830152604482018c90529091169063fca247ac906064016020604051808303816000875af11580156110da573d6000803e3d6000fd5b505050506040513d601f19601f820116820180604052508101906110fe91906119ac565b90505b8973ffffffffffffffffffffffffffffffffffffffff16837fca6abbe9d7f11422cb6ca7629fbf6fe9efb1c621f71ce8f02b9f2a230097404f8d878560405161114c939291906119c5565b60405180910390a38334111561119457336108fc61116a8634611a87565b6040518115909202916000818181858888f19350505050158015611192573d6000803e3d6000fd5b505b5050505050505050505050565b60005473ffffffffffffffffffffffffffffffffffffffff1633146106bb576040517f08c379a000000000000000000000000000000000000000000000000000000000815260206004820181905260248201527f4f776e61626c653a2063616c6c6572206973206e6f7420746865206f776e65726044820152606401610b6e565b6000805473ffffffffffffffffffffffffffffffffffffffff8381167fffffffffffffffffffffffff0000000000000000000000000000000000000000831681178455604051919092169283917f8be0079c531659141344cd1fd0a4f28419497f9722a3daafe3b4186f6b6457e09190a35050565b8051600090819081905b808210156114955760008583815181106112bd576112bd611b53565b01602001517fff000000000000000000000000000000000000000000000000000000000000001690507f800000000000000000000000000000000000000000000000000000000000000081101561132057611319600184611b1e565b9250611482565b7fe0000000000000000000000000000000000000000000000000000000000000007fff000000000000000000000000000000000000000000000000000000000000008216101561137557611319600284611b1e565b7ff0000000000000000000000000000000000000000000000000000000000000007fff00000000000000000000000000000000000000000000000000000000000000821610156113ca57611319600384611b1e565b7ff8000000000000000000000000000000000000000000000000000000000000007fff000000000000000000000000000000000000000000000000000000000000008216101561141f57611319600484611b1e565b7ffc000000000000000000000000000000000000000000000000000000000000007fff000000000000000000000000000000000000000000000000000000000000008216101561147457611319600584611b1e565b61147f600684611b1e565b92505b508261148d81611b82565b9350506112a1565b50909392505050565b600354600082815260056020526040812054909142916114be9190611b1e565b11156114c957600080fd5b60045460008381526005602052604090205442916114e691611b1e565b116114f057600080fd5b6114f9846109d9565b61150257600080fd5b600082815260056020526040812081905561151d85856106d0565b90506224ea0084101561152f57600080fd5b803410156107dd57600080fd5b60006020828403121561154e57600080fd5b81357fffffffff0000000000000000000000000000000000000000000000000000000081168114610a8657600080fd5b7f4e487b7100000000000000000000000000000000000000000000000000000000600052604160045260246000fd5b600082601f8301126115be57600080fd5b813567ffffffffffffffff808211156115d9576115d961157e565b604051601f83017fffffffffffffffffffffffffffffffffffffffffffffffffffffffffffffffe0908116603f0116810190828211818310171561161f5761161f61157e565b8160405283815286602085880101111561163857600080fd5b836020870160208301376000602085830101528094505050505092915050565b73ffffffffffffffffffffffffffffffffffffffff811681146104ea57600080fd5b600080600080600060a0868803121561169257600080fd5b853567ffffffffffffffff8111156116a957600080fd5b6116b5888289016115ad565b95505060208601356116c681611658565b93506040860135925060608601356116dd81611658565b915060808601356116ed81611658565b809150509295509295909350565b60006020828403121561170d57600080fd5b8135610a8681611658565b6000806040838503121561172b57600080fd5b50508035926020909101359150565b60006020828403121561174c57600080fd5b5035919050565b6000806040838503121561176657600080fd5b823567ffffffffffffffff81111561177d57600080fd5b611789858286016115ad565b95602094909401359450505050565b60008083601f8401126117aa57600080fd5b50813567ffffffffffffffff8111156117c257600080fd5b6020830191508360208285010111156117da57600080fd5b9250929050565b6000806000806000608086880312156117f957600080fd5b853567ffffffffffffffff81111561181057600080fd5b61181c88828901611798565b909650945050602086013561183081611658565b94979396509394604081013594506060013592915050565b60006020828403121561185a57600080fd5b813567ffffffffffffffff81111561187157600080fd5b6107dd848285016115ad565b60008060006040848603121561189257600080fd5b833567ffffffffffffffff8111156118a957600080fd5b6118b586828701611798565b909790965060209590950135949350505050565b6000806000606084860312156118de57600080fd5b833567ffffffffffffffff8111156118f557600080fd5b611901868287016115ad565b935050602084013561191281611658565b929592945050506040919091013590565b60008060008060008060c0878903121561193c57600080fd5b863567ffffffffffffffff81111561195357600080fd5b61195f89828a016115ad565b965050602087013561197081611658565b94506040870135935060608701359250608087013561198e81611658565b915060a087013561199e81611658565b809150509295509295509295565b6000602082840312156119be57600080fd5b5051919050565b606081526000845180606084015260005b818110156119f357602081880181015160808684010152016119d6565b81811115611a05576000608083860101525b5060807fffffffffffffffffffffffffffffffffffffffffffffffffffffffffffffffe0601f830116840101915050836020830152826040830152949350505050565b8183823760009101908152919050565b7f4e487b7100000000000000000000000000000000000000000000000000000000600052601160045260246000fd5b600082821015611a9957611a99611a58565b500390565b6060815283606082015283856080830137600060808583010152600060807fffffffffffffffffffffffffffffffffffffffffffffffffffffffffffffffe0601f870116830101905083602083015282604083015295945050505050565b600060208284031215611b0e57600080fd5b81518015158114610a8657600080fd5b60008219821115611b3157611b31611a58565b500190565b600060208284031215611b4857600080fd5b8151610a8681611658565b7f4e487b7100000000000000000000000000000000000000000000000000000000600052603260045260246000fd5b60007fffffffffffffffffffffffffffffffffffffffffffffffffffffffffffffffff821415611bb457611bb4611a58565b506001019056fea2646970667358221220dca80e62b39acb3897f90919a0e7137775d94fd5598a3b273843fb302fe7031364736f6c634300080c0033",
  "devdoc": {
    "details": "A registrar controller for registering and renewing names at fixed cost.",
    "kind": "dev",
    "methods": {
      "commit(bytes32)": {
        "details": "commitment"
      },
      "makeCommitmentWithConfig(string,address,bytes32,address,address)": {
        "details": "commitment"
      },
      "owner()": {
        "details": "Returns the address of the current owner."
      },
      "registerWithConfig(string,address,uint256,bytes32,address,address)": {
        "details": ""
      },
      "renew(string,uint256)": {
        "details": ""
      },
      "renounceOwnership()": {
        "details": "Leaves the contract without owner. It will not be possible to call `onlyOwner` functions anymore. Can only be called by the current owner. NOTE: Renouncing ownership will leave the contract without an owner, thereby removing any functionality that is only available to the owner."
      },
      "transferOwnership(address)": {
        "details": "Transfers ownership of the contract to a new account (`newOwner`). Can only be called by the current owner."
      }
    },
    "version": 1
  },
  "userdoc": {
    "kind": "user",
    "methods": {},
    "version": 1
  },
  "storageLayout": {
    "storage": [
      {
        "astId": 545,
        "contract": "contracts/ethregistrar/ETHRegistrarController.sol:ETHRegistrarController",
        "label": "_owner",
        "offset": 0,
        "slot": "0",
        "type": "t_address"
      },
      {
        "astId": 10645,
        "contract": "contracts/ethregistrar/ETHRegistrarController.sol:ETHRegistrarController",
        "label": "base",
        "offset": 0,
        "slot": "1",
        "type": "t_contract(BaseRegistrarImplementation)10356"
      },
      {
        "astId": 10648,
        "contract": "contracts/ethregistrar/ETHRegistrarController.sol:ETHRegistrarController",
        "label": "prices",
        "offset": 0,
        "slot": "2",
        "type": "t_contract(PriceOracle)11788"
      },
      {
        "astId": 10650,
        "contract": "contracts/ethregistrar/ETHRegistrarController.sol:ETHRegistrarController",
        "label": "minCommitmentAge",
        "offset": 0,
        "slot": "3",
        "type": "t_uint256"
      },
      {
        "astId": 10652,
        "contract": "contracts/ethregistrar/ETHRegistrarController.sol:ETHRegistrarController",
        "label": "maxCommitmentAge",
        "offset": 0,
        "slot": "4",
        "type": "t_uint256"
      },
      {
        "astId": 10656,
        "contract": "contracts/ethregistrar/ETHRegistrarController.sol:ETHRegistrarController",
        "label": "commitments",
        "offset": 0,
        "slot": "5",
        "type": "t_mapping(t_bytes32,t_uint256)"
      }
    ],
    "types": {
      "t_address": {
        "encoding": "inplace",
        "label": "address",
        "numberOfBytes": "20"
      },
      "t_bytes32": {
        "encoding": "inplace",
        "label": "bytes32",
        "numberOfBytes": "32"
      },
      "t_contract(BaseRegistrarImplementation)10356": {
        "encoding": "inplace",
        "label": "contract BaseRegistrarImplementation",
        "numberOfBytes": "20"
      },
      "t_contract(PriceOracle)11788": {
        "encoding": "inplace",
        "label": "contract PriceOracle",
        "numberOfBytes": "20"
      },
      "t_mapping(t_bytes32,t_uint256)": {
        "encoding": "mapping",
        "key": "t_bytes32",
        "label": "mapping(bytes32 => uint256)",
        "numberOfBytes": "32",
        "value": "t_uint256"
      },
      "t_uint256": {
        "encoding": "inplace",
        "label": "uint256",
        "numberOfBytes": "32"
      }
    }
  }
}