{
  "address": "0x9E7F5b1D8e175a300F7595E633c585EBCc429DB0",
  "abi": [
    {
      "inputs": [
        {
          "internalType": "contract AggregatorInterface",
          "name": "_usdOracle",
          "type": "address"
        },
        {
          "internalType": "uint256[]",
          "name": "_rentPrices",
          "type": "uint256[]"
        }
      ],
      "stateMutability": "nonpayable",
      "type": "constructor"
    },
    {
      "anonymous": false,
      "inputs": [
        {
          "indexed": false,
          "internalType": "address",
          "name": "oracle",
          "type": "address"
        }
      ],
      "name": "OracleChanged",
      "type": "event"
    },
    {
      "anonymous": false,
      "inputs": [
        {
          "indexed": true,
          "internalType": "address",
          "name": "previousOwner",
          "type": "address"
        },
        {
          "indexed": true,
          "internalType": "address",
          "name": "newOwner",
          "type": "address"
        }
      ],
      "name": "OwnershipTransferred",
      "type": "event"
    },
    {
      "anonymous": false,
      "inputs": [
        {
          "indexed": false,
          "internalType": "uint256[]",
          "name": "prices",
          "type": "uint256[]"
        }
      ],
      "name": "RentPriceChanged",
      "type": "event"
    },
    {
      "inputs": [],
      "name": "owner",
      "outputs": [
        {
          "internalType": "address",
          "name": "",
          "type": "address"
        }
      ],
      "stateMutability": "view",
      "type": "function"
    },
    {
      "inputs": [
        {
          "internalType": "string",
          "name": "name",
          "type": "string"
        },
        {
          "internalType": "uint256",
          "name": "expires",
          "type": "uint256"
        },
        {
          "internalType": "uint256",
          "name": "duration",
          "type": "uint256"
        }
      ],
      "name": "premium",
      "outputs": [
        {
          "internalType": "uint256",
          "name": "",
          "type": "uint256"
        }
      ],
      "stateMutability": "view",
      "type": "function"
    },
    {
      "inputs": [
        {
          "internalType": "string",
          "name": "name",
          "type": "string"
        },
        {
          "internalType": "uint256",
          "name": "expires",
          "type": "uint256"
        },
        {
          "internalType": "uint256",
          "name": "duration",
          "type": "uint256"
        }
      ],
      "name": "price",
      "outputs": [
        {
          "internalType": "uint256",
          "name": "",
          "type": "uint256"
        }
      ],
      "stateMutability": "view",
      "type": "function"
    },
    {
      "inputs": [],
      "name": "renounceOwnership",
      "outputs": [],
      "stateMutability": "nonpayable",
      "type": "function"
    },
    {
      "inputs": [
        {
          "internalType": "uint256",
          "name": "",
          "type": "uint256"
        }
      ],
      "name": "rentPrices",
      "outputs": [
        {
          "internalType": "uint256",
          "name": "",
          "type": "uint256"
        }
      ],
      "stateMutability": "view",
      "type": "function"
    },
    {
      "inputs": [
        {
          "internalType": "contract AggregatorInterface",
          "name": "_usdOracle",
          "type": "address"
        }
      ],
      "name": "setOracle",
      "outputs": [],
      "stateMutability": "nonpayable",
      "type": "function"
    },
    {
      "inputs": [
        {
          "internalType": "uint256[]",
          "name": "_rentPrices",
          "type": "uint256[]"
        }
      ],
      "name": "setPrices",
      "outputs": [],
      "stateMutability": "nonpayable",
      "type": "function"
    },
    {
      "inputs": [
        {
          "internalType": "bytes4",
          "name": "interfaceID",
          "type": "bytes4"
        }
      ],
      "name": "supportsInterface",
      "outputs": [
        {
          "internalType": "bool",
          "name": "",
          "type": "bool"
        }
      ],
      "stateMutability": "view",
      "type": "function"
    },
    {
      "inputs": [
        {
          "internalType": "address",
          "name": "newOwner",
          "type": "address"
        }
      ],
      "name": "transferOwnership",
      "outputs": [],
      "stateMutability": "nonpayable",
      "type": "function"
    },
    {
      "inputs": [],
      "name": "usdOracle",
      "outputs": [
        {
          "internalType": "contract AggregatorInterface",
          "name": "",
          "type": "address"
        }
      ],
      "stateMutability": "view",
      "type": "function"
    }
  ],
  "transactionHash": "0xaaf4e7369c2e4956f72a0f75aeb3be9bb2d56648ddfd96d177fa98f1eb885b4e",
  "args": [
    "0x8055110Ef3c602BA051aD238C083A09708B6AcbD",
    [
      1,
      1,
      1,
      1,
      1
    ]
  ],
  "numDeployments": 1,
  "solcInputHash": "5e15c453355461e316e74dfad4851795",
  "bytecode": "0x60806040523480156200001157600080fd5b5060405162001130380380620011308339810160408190526200003491620001f7565b6200003f336200006d565b600280546001600160a01b0319166001600160a01b0384161790556200006581620000bd565b50506200032a565b600080546001600160a01b038381166001600160a01b0319831681178455604051919092169283917f8be0079c531659141344cd1fd0a4f28419497f9722a3daafe3b4186f6b6457e09190a35050565b620000c762000119565b8051620000dc9060019060208401906200017a565b507f73422d94aedd596c2d4d39f27a01033adc390a9054efaf259afefd95ef7331df816040516200010e9190620002e4565b60405180910390a150565b6000546001600160a01b03163314620001785760405162461bcd60e51b815260206004820181905260248201527f4f776e61626c653a2063616c6c6572206973206e6f7420746865206f776e6572604482015260640160405180910390fd5b565b828054828255906000526020600020908101928215620001b8579160200282015b82811115620001b85782518255916020019190600101906200019b565b50620001c6929150620001ca565b5090565b5b80821115620001c65760008155600101620001cb565b634e487b7160e01b600052604160045260246000fd5b600080604083850312156200020b57600080fd5b82516001600160a01b03811681146200022357600080fd5b602084810151919350906001600160401b03808211156200024357600080fd5b818601915086601f8301126200025857600080fd5b8151818111156200026d576200026d620001e1565b8060051b604051601f19603f83011681018181108582111715620002955762000295620001e1565b604052918252848201925083810185019189831115620002b457600080fd5b938501935b82851015620002d457845184529385019392850192620002b9565b8096505050505050509250929050565b6020808252825182820181905260009190848201906040850190845b818110156200031e5783518352928401929184019160010162000300565b50909695505050505050565b610df6806200033a6000396000f3fe608060405234801561001057600080fd5b50600436106100be5760003560e01c80637adbf97311610076578063a34e35961161005b578063a34e35961461018e578063c8a4271f146101a1578063f2fde38b146101c157600080fd5b80637adbf9731461013c5780638da5cb5b1461014f57600080fd5b806350e9a715116100a757806350e9a7151461010c578063715018a61461011f57806379cf92d31461012957600080fd5b806301ffc9a7146100c357806306d5d0b6146100eb575b600080fd5b6100d66100d1366004610a01565b6101d4565b60405190151581526020015b60405180910390f35b6100fe6100f9366004610a43565b61026d565b6040519081526020016100e2565b6100fe61011a366004610a5c565b61028e565b610127610384565b005b610127610137366004610b0a565b610398565b61012761014a366004610c08565b6103ee565b60005473ffffffffffffffffffffffffffffffffffffffff165b60405173ffffffffffffffffffffffffffffffffffffffff90911681526020016100e2565b6100fe61019c366004610a5c565b610469565b6002546101699073ffffffffffffffffffffffffffffffffffffffff1681565b6101276101cf366004610c08565b6104bf565b60007fffffffff0000000000000000000000000000000000000000000000000000000082167f01ffc9a700000000000000000000000000000000000000000000000000000000148061026757507fffffffff0000000000000000000000000000000000000000000000000000000082167ff3a7928300000000000000000000000000000000000000000000000000000000145b92915050565b6001818154811061027d57600080fd5b600091825260209091200154905081565b6000806102d086868080601f01602080910402602001604051908101604052809392919081815260200183838082843760009201919091525061057b92505050565b6001549091508111156102e257506001545b600081116102ef57600080fd5b600061032a8460016103018186610c54565b8154811061031157610311610c6b565b906000526020600020015461078290919063ffffffff16565b905061037961037288888080601f0160208091040260200160405190810160405280939291908181526020018383808284376000920191909152508a92508991506107bb9050565b82906107c4565b979650505050505050565b61038c6107e0565b6103966000610861565b565b6103a06107e0565b80516103b39060019060208401906109a1565b507f73422d94aedd596c2d4d39f27a01033adc390a9054efaf259afefd95ef7331df816040516103e39190610c9a565b60405180910390a150565b6103f66107e0565b600280547fffffffffffffffffffffffff00000000000000000000000000000000000000001673ffffffffffffffffffffffffffffffffffffffff83169081179091556040519081527f0e05ae75e8b926552cf6fcd744d19f422561e3ced1e426868730852702dbe418906020016103e3565b60006104b66104b186868080601f0160208091040260200160405190810160405280939291908181526020018383808284376000920191909152508892508791506107bb9050565b6108d6565b95945050505050565b6104c76107e0565b73ffffffffffffffffffffffffffffffffffffffff811661056f576040517f08c379a000000000000000000000000000000000000000000000000000000000815260206004820152602660248201527f4f776e61626c653a206e6577206f776e657220697320746865207a65726f206160448201527f646472657373000000000000000000000000000000000000000000000000000060648201526084015b60405180910390fd5b61057881610861565b50565b8051600090819081905b808210156107795760008583815181106105a1576105a1610c6b565b01602001517fff000000000000000000000000000000000000000000000000000000000000001690507f8000000000000000000000000000000000000000000000000000000000000000811015610604576105fd600184610cde565b9250610766565b7fe0000000000000000000000000000000000000000000000000000000000000007fff0000000000000000000000000000000000000000000000000000000000000082161015610659576105fd600284610cde565b7ff0000000000000000000000000000000000000000000000000000000000000007fff00000000000000000000000000000000000000000000000000000000000000821610156106ae576105fd600384610cde565b7ff8000000000000000000000000000000000000000000000000000000000000007fff0000000000000000000000000000000000000000000000000000000000000082161015610703576105fd600484610cde565b7ffc000000000000000000000000000000000000000000000000000000000000007fff0000000000000000000000000000000000000000000000000000000000000082161015610758576105fd600584610cde565b610763600684610cde565b92505b508261077181610cf6565b935050610585565b50909392505050565b60008261079157506000610267565b600061079d8385610d2f565b9050826107aa8583610d6c565b146107b457600080fd5b9392505050565b60009392505050565b6000806107d18385610cde565b9050838110156107b457600080fd5b60005473ffffffffffffffffffffffffffffffffffffffff163314610396576040517f08c379a000000000000000000000000000000000000000000000000000000000815260206004820181905260248201527f4f776e61626c653a2063616c6c6572206973206e6f7420746865206f776e65726044820152606401610566565b6000805473ffffffffffffffffffffffffffffffffffffffff8381167fffffffffffffffffffffffff0000000000000000000000000000000000000000831681178455604051919092169283917f8be0079c531659141344cd1fd0a4f28419497f9722a3daafe3b4186f6b6457e09190a35050565b600080600260009054906101000a900473ffffffffffffffffffffffffffffffffffffffff1673ffffffffffffffffffffffffffffffffffffffff166350d25bcd6040518163ffffffff1660e01b8152600401602060405180830381865afa158015610946573d6000803e3d6000fd5b505050506040513d601f19601f8201168201806040525081019061096a9190610da7565b90506107b48161097e856305f5e100610782565b90600080821161098d57600080fd5b60006109998385610d6c565b949350505050565b8280548282559060005260206000209081019282156109dc579160200282015b828111156109dc5782518255916020019190600101906109c1565b506109e89291506109ec565b5090565b5b808211156109e857600081556001016109ed565b600060208284031215610a1357600080fd5b81357fffffffff00000000000000000000000000000000000000000000000000000000811681146107b457600080fd5b600060208284031215610a5557600080fd5b5035919050565b60008060008060608587031215610a7257600080fd5b843567ffffffffffffffff80821115610a8a57600080fd5b818701915087601f830112610a9e57600080fd5b813581811115610aad57600080fd5b886020828501011115610abf57600080fd5b6020928301999098509187013596604001359550909350505050565b7f4e487b7100000000000000000000000000000000000000000000000000000000600052604160045260246000fd5b60006020808385031215610b1d57600080fd5b823567ffffffffffffffff80821115610b3557600080fd5b818501915085601f830112610b4957600080fd5b813581811115610b5b57610b5b610adb565b8060051b6040517fffffffffffffffffffffffffffffffffffffffffffffffffffffffffffffffe0603f83011681018181108582111715610b9e57610b9e610adb565b604052918252848201925083810185019188831115610bbc57600080fd5b938501935b82851015610bda57843584529385019392850192610bc1565b98975050505050505050565b73ffffffffffffffffffffffffffffffffffffffff8116811461057857600080fd5b600060208284031215610c1a57600080fd5b81356107b481610be6565b7f4e487b7100000000000000000000000000000000000000000000000000000000600052601160045260246000fd5b600082821015610c6657610c66610c25565b500390565b7f4e487b7100000000000000000000000000000000000000000000000000000000600052603260045260246000fd5b6020808252825182820181905260009190848201906040850190845b81811015610cd257835183529284019291840191600101610cb6565b50909695505050505050565b60008219821115610cf157610cf1610c25565b500190565b60007fffffffffffffffffffffffffffffffffffffffffffffffffffffffffffffffff821415610d2857610d28610c25565b5060010190565b6000817fffffffffffffffffffffffffffffffffffffffffffffffffffffffffffffffff0483118215151615610d6757610d67610c25565b500290565b600082610da2577f4e487b7100000000000000000000000000000000000000000000000000000000600052601260045260246000fd5b500490565b600060208284031215610db957600080fd5b505191905056fea2646970667358221220cee5bb94ab6ff8de66cdfbcf80fe23825293a6028614dcc06a4b3d0dc0d19bda64736f6c634300080c0033",
  "devdoc": {
    "kind": "dev",
    "methods": {
      "owner()": {
        "details": "Returns the address of the current owner."
      },
      "premium(string,uint256,uint256)": {
        "details": "Returns the pricing premium in wei."
      },
      "price(string,uint256,uint256)": {
        "details": "Returns the price to register or renew a name.",
        "params": {
          "duration": "How long the name is being registered or extended for, in seconds.",
          "expires": "When the name presently expires (0 if this is a new registration).",
          "name": "The name being registered or renewed."
        },
        "returns": {
          "_0": "The price of this renewal or registration, in wei."
        }
      },
      "renounceOwnership()": {
        "details": "Leaves the contract without owner. It will not be possible to call `onlyOwner` functions anymore. Can only be called by the current owner. NOTE: Renouncing ownership will leave the contract without an owner, thereby removing any functionality that is only available to the owner."
      },
      "setOracle(address)": {
        "details": "Sets the price oracle address",
        "params": {
          "_usdOracle": "The address of the price oracle to use."
        }
      },
      "setPrices(uint256[])": {
        "details": "Sets rent prices.",
        "params": {
          "_rentPrices": "The price array. Each element corresponds to a specific                    name length; names longer than the length of the array                    default to the price of the last element. Values are                    in base price units, equal to one attodollar (1e-18                    dollar) each."
        }
      },
      "transferOwnership(address)": {
        "details": "Transfers ownership of the contract to a new account (`newOwner`). Can only be called by the current owner."
      }
    },
    "version": 1
  },
  "userdoc": {
    "kind": "user",
    "methods": {},
    "version": 1
  },
  "storageLayout": {
    "storage": [
      {
        "astId": 545,
        "contract": "contracts/ethregistrar/FixedPriceOracle.sol:FixedPriceOracle",
        "label": "_owner",
        "offset": 0,
        "slot": "0",
        "type": "t_address"
      },
      {
        "astId": 11353,
        "contract": "contracts/ethregistrar/FixedPriceOracle.sol:FixedPriceOracle",
        "label": "rentPrices",
        "offset": 0,
        "slot": "1",
        "type": "t_array(t_uint256)dyn_storage"
      },
      {
        "astId": 11356,
        "contract": "contracts/ethregistrar/FixedPriceOracle.sol:FixedPriceOracle",
        "label": "usdOracle",
        "offset": 0,
        "slot": "2",
        "type": "t_contract(AggregatorInterface)11342"
      }
    ],
    "types": {
      "t_address": {
        "encoding": "inplace",
        "label": "address",
        "numberOfBytes": "20"
      },
      "t_array(t_uint256)dyn_storage": {
        "base": "t_uint256",
        "encoding": "dynamic_array",
        "label": "uint256[]",
        "numberOfBytes": "32"
      },
      "t_contract(AggregatorInterface)11342": {
        "encoding": "inplace",
        "label": "contract AggregatorInterface",
        "numberOfBytes": "20"
      },
      "t_uint256": {
        "encoding": "inplace",
        "label": "uint256",
        "numberOfBytes": "32"
      }
    }
  }
}