{
  "address": "0x9f19fEDff8815bd3C576562CBCC430F86b4166D8",
  "abi": [
    {
      "inputs": [
        {
          "internalType": "contract ENS",
          "name": "_ens",
          "type": "address"
        },
        {
          "internalType": "contract INameWrapper",
          "name": "wrapperAddress",
          "type": "address"
        }
      ],
      "stateMutability": "nonpayable",
      "type": "constructor"
    },
    {
      "anonymous": false,
      "inputs": [
        {
          "indexed": true,
          "internalType": "bytes32",
          "name": "node",
          "type": "bytes32"
        },
        {
          "indexed": true,
          "internalType": "uint256",
          "name": "contentType",
          "type": "uint256"
        }
      ],
      "name": "ABIChanged",
      "type": "event"
    },
    {
      "anonymous": false,
      "inputs": [
        {
          "indexed": true,
          "internalType": "bytes32",
          "name": "node",
          "type": "bytes32"
        },
        {
          "indexed": false,
          "internalType": "address",
          "name": "a",
          "type": "address"
        }
      ],
      "name": "AddrChanged",
      "type": "event"
    },
    {
      "anonymous": false,
      "inputs": [
        {
          "indexed": true,
          "internalType": "bytes32",
          "name": "node",
          "type": "bytes32"
        },
        {
          "indexed": false,
          "internalType": "uint256",
          "name": "coinType",
          "type": "uint256"
        },
        {
          "indexed": false,
          "internalType": "bytes",
          "name": "newAddress",
          "type": "bytes"
        }
      ],
      "name": "AddressChanged",
      "type": "event"
    },
    {
      "anonymous": false,
      "inputs": [
        {
          "indexed": true,
          "internalType": "address",
          "name": "owner",
          "type": "address"
        },
        {
          "indexed": true,
          "internalType": "address",
          "name": "operator",
          "type": "address"
        },
        {
          "indexed": false,
          "internalType": "bool",
          "name": "approved",
          "type": "bool"
        }
      ],
      "name": "ApprovalForAll",
      "type": "event"
    },
    {
      "anonymous": false,
      "inputs": [
        {
          "indexed": true,
          "internalType": "bytes32",
          "name": "node",
          "type": "bytes32"
        },
        {
          "indexed": false,
          "internalType": "bytes",
          "name": "hash",
          "type": "bytes"
        }
      ],
      "name": "ContenthashChanged",
      "type": "event"
    },
    {
      "anonymous": false,
      "inputs": [
        {
          "indexed": true,
          "internalType": "bytes32",
          "name": "node",
          "type": "bytes32"
        },
        {
          "indexed": false,
          "internalType": "bytes",
          "name": "name",
          "type": "bytes"
        },
        {
          "indexed": false,
          "internalType": "uint16",
          "name": "resource",
          "type": "uint16"
        },
        {
          "indexed": false,
          "internalType": "bytes",
          "name": "record",
          "type": "bytes"
        }
      ],
      "name": "DNSRecordChanged",
      "type": "event"
    },
    {
      "anonymous": false,
      "inputs": [
        {
          "indexed": true,
          "internalType": "bytes32",
          "name": "node",
          "type": "bytes32"
        },
        {
          "indexed": false,
          "internalType": "bytes",
          "name": "name",
          "type": "bytes"
        },
        {
          "indexed": false,
          "internalType": "uint16",
          "name": "resource",
          "type": "uint16"
        }
      ],
      "name": "DNSRecordDeleted",
      "type": "event"
    },
    {
      "anonymous": false,
      "inputs": [
        {
          "indexed": true,
          "internalType": "bytes32",
          "name": "node",
          "type": "bytes32"
        }
      ],
      "name": "DNSZoneCleared",
      "type": "event"
    },
    {
      "anonymous": false,
      "inputs": [
        {
          "indexed": true,
          "internalType": "bytes32",
          "name": "node",
          "type": "bytes32"
        },
        {
          "indexed": false,
          "internalType": "bytes",
          "name": "lastzonehash",
          "type": "bytes"
        },
        {
          "indexed": false,
          "internalType": "bytes",
          "name": "zonehash",
          "type": "bytes"
        }
      ],
      "name": "DNSZonehashChanged",
      "type": "event"
    },
    {
      "anonymous": false,
      "inputs": [
        {
          "indexed": true,
          "internalType": "bytes32",
          "name": "node",
          "type": "bytes32"
        },
        {
          "indexed": true,
          "internalType": "bytes4",
          "name": "interfaceID",
          "type": "bytes4"
        },
        {
          "indexed": false,
          "internalType": "address",
          "name": "implementer",
          "type": "address"
        }
      ],
      "name": "InterfaceChanged",
      "type": "event"
    },
    {
      "anonymous": false,
      "inputs": [
        {
          "indexed": true,
          "internalType": "bytes32",
          "name": "node",
          "type": "bytes32"
        },
        {
          "indexed": false,
          "internalType": "string",
          "name": "name",
          "type": "string"
        }
      ],
      "name": "NameChanged",
      "type": "event"
    },
    {
      "anonymous": false,
      "inputs": [
        {
          "indexed": true,
          "internalType": "bytes32",
          "name": "node",
          "type": "bytes32"
        },
        {
          "indexed": false,
          "internalType": "bytes32",
          "name": "x",
          "type": "bytes32"
        },
        {
          "indexed": false,
          "internalType": "bytes32",
          "name": "y",
          "type": "bytes32"
        }
      ],
      "name": "PubkeyChanged",
      "type": "event"
    },
    {
      "anonymous": false,
      "inputs": [
        {
          "indexed": true,
          "internalType": "bytes32",
          "name": "node",
          "type": "bytes32"
        },
        {
          "indexed": true,
          "internalType": "string",
          "name": "indexedKey",
          "type": "string"
        },
        {
          "indexed": false,
          "internalType": "string",
          "name": "key",
          "type": "string"
        }
      ],
      "name": "TextChanged",
      "type": "event"
    },
    {
      "inputs": [
        {
          "internalType": "bytes32",
          "name": "node",
          "type": "bytes32"
        },
        {
          "internalType": "uint256",
          "name": "contentTypes",
          "type": "uint256"
        }
      ],
      "name": "ABI",
      "outputs": [
        {
          "internalType": "uint256",
          "name": "",
          "type": "uint256"
        },
        {
          "internalType": "bytes",
          "name": "",
          "type": "bytes"
        }
      ],
      "stateMutability": "view",
      "type": "function"
    },
    {
      "inputs": [
        {
          "internalType": "bytes32",
          "name": "node",
          "type": "bytes32"
        }
      ],
      "name": "addr",
      "outputs": [
        {
          "internalType": "address payable",
          "name": "",
          "type": "address"
        }
      ],
      "stateMutability": "view",
      "type": "function"
    },
    {
      "inputs": [
        {
          "internalType": "bytes32",
          "name": "node",
          "type": "bytes32"
        },
        {
          "internalType": "uint256",
          "name": "coinType",
          "type": "uint256"
        }
      ],
      "name": "addr",
      "outputs": [
        {
          "internalType": "bytes",
          "name": "",
          "type": "bytes"
        }
      ],
      "stateMutability": "view",
      "type": "function"
    },
    {
      "inputs": [
        {
          "internalType": "bytes32",
          "name": "node",
          "type": "bytes32"
        }
      ],
      "name": "clearDNSZone",
      "outputs": [],
      "stateMutability": "nonpayable",
      "type": "function"
    },
    {
      "inputs": [
        {
          "internalType": "bytes32",
          "name": "node",
          "type": "bytes32"
        }
      ],
      "name": "contenthash",
      "outputs": [
        {
          "internalType": "bytes",
          "name": "",
          "type": "bytes"
        }
      ],
      "stateMutability": "view",
      "type": "function"
    },
    {
      "inputs": [
        {
          "internalType": "bytes32",
          "name": "node",
          "type": "bytes32"
        },
        {
          "internalType": "bytes32",
          "name": "name",
          "type": "bytes32"
        },
        {
          "internalType": "uint16",
          "name": "resource",
          "type": "uint16"
        }
      ],
      "name": "dnsRecord",
      "outputs": [
        {
          "internalType": "bytes",
          "name": "",
          "type": "bytes"
        }
      ],
      "stateMutability": "view",
      "type": "function"
    },
    {
      "inputs": [
        {
          "internalType": "bytes32",
          "name": "node",
          "type": "bytes32"
        },
        {
          "internalType": "bytes32",
          "name": "name",
          "type": "bytes32"
        }
      ],
      "name": "hasDNSRecords",
      "outputs": [
        {
          "internalType": "bool",
          "name": "",
          "type": "bool"
        }
      ],
      "stateMutability": "view",
      "type": "function"
    },
    {
      "inputs": [
        {
          "internalType": "bytes32",
          "name": "node",
          "type": "bytes32"
        },
        {
          "internalType": "bytes4",
          "name": "interfaceID",
          "type": "bytes4"
        }
      ],
      "name": "interfaceImplementer",
      "outputs": [
        {
          "internalType": "address",
          "name": "",
          "type": "address"
        }
      ],
      "stateMutability": "view",
      "type": "function"
    },
    {
      "inputs": [
        {
          "internalType": "address",
          "name": "account",
          "type": "address"
        },
        {
          "internalType": "address",
          "name": "operator",
          "type": "address"
        }
      ],
      "name": "isApprovedForAll",
      "outputs": [
        {
          "internalType": "bool",
          "name": "",
          "type": "bool"
        }
      ],
      "stateMutability": "view",
      "type": "function"
    },
    {
      "inputs": [
        {
          "internalType": "bytes[]",
          "name": "data",
          "type": "bytes[]"
        }
      ],
      "name": "multicall",
      "outputs": [
        {
          "internalType": "bytes[]",
          "name": "results",
          "type": "bytes[]"
        }
      ],
      "stateMutability": "nonpayable",
      "type": "function"
    },
    {
      "inputs": [
        {
          "internalType": "bytes32",
          "name": "node",
          "type": "bytes32"
        }
      ],
      "name": "name",
      "outputs": [
        {
          "internalType": "string",
          "name": "",
          "type": "string"
        }
      ],
      "stateMutability": "view",
      "type": "function"
    },
    {
      "inputs": [
        {
          "internalType": "bytes32",
          "name": "node",
          "type": "bytes32"
        }
      ],
      "name": "pubkey",
      "outputs": [
        {
          "internalType": "bytes32",
          "name": "x",
          "type": "bytes32"
        },
        {
          "internalType": "bytes32",
          "name": "y",
          "type": "bytes32"
        }
      ],
      "stateMutability": "view",
      "type": "function"
    },
    {
      "inputs": [
        {
          "internalType": "bytes32",
          "name": "node",
          "type": "bytes32"
        },
        {
          "internalType": "uint256",
          "name": "contentType",
          "type": "uint256"
        },
        {
          "internalType": "bytes",
          "name": "data",
          "type": "bytes"
        }
      ],
      "name": "setABI",
      "outputs": [],
      "stateMutability": "nonpayable",
      "type": "function"
    },
    {
      "inputs": [
        {
          "internalType": "bytes32",
          "name": "node",
          "type": "bytes32"
        },
        {
          "internalType": "uint256",
          "name": "coinType",
          "type": "uint256"
        },
        {
          "internalType": "bytes",
          "name": "a",
          "type": "bytes"
        }
      ],
      "name": "setAddr",
      "outputs": [],
      "stateMutability": "nonpayable",
      "type": "function"
    },
    {
      "inputs": [
        {
          "internalType": "bytes32",
          "name": "node",
          "type": "bytes32"
        },
        {
          "internalType": "address",
          "name": "a",
          "type": "address"
        }
      ],
      "name": "setAddr",
      "outputs": [],
      "stateMutability": "nonpayable",
      "type": "function"
    },
    {
      "inputs": [
        {
          "internalType": "address",
          "name": "operator",
          "type": "address"
        },
        {
          "internalType": "bool",
          "name": "approved",
          "type": "bool"
        }
      ],
      "name": "setApprovalForAll",
      "outputs": [],
      "stateMutability": "nonpayable",
      "type": "function"
    },
    {
      "inputs": [
        {
          "internalType": "bytes32",
          "name": "node",
          "type": "bytes32"
        },
        {
          "internalType": "bytes",
          "name": "hash",
          "type": "bytes"
        }
      ],
      "name": "setContenthash",
      "outputs": [],
      "stateMutability": "nonpayable",
      "type": "function"
    },
    {
      "inputs": [
        {
          "internalType": "bytes32",
          "name": "node",
          "type": "bytes32"
        },
        {
          "internalType": "bytes",
          "name": "data",
          "type": "bytes"
        }
      ],
      "name": "setDNSRecords",
      "outputs": [],
      "stateMutability": "nonpayable",
      "type": "function"
    },
    {
      "inputs": [
        {
          "internalType": "bytes32",
          "name": "node",
          "type": "bytes32"
        },
        {
          "internalType": "bytes4",
          "name": "interfaceID",
          "type": "bytes4"
        },
        {
          "internalType": "address",
          "name": "implementer",
          "type": "address"
        }
      ],
      "name": "setInterface",
      "outputs": [],
      "stateMutability": "nonpayable",
      "type": "function"
    },
    {
      "inputs": [
        {
          "internalType": "bytes32",
          "name": "node",
          "type": "bytes32"
        },
        {
          "internalType": "string",
          "name": "newName",
          "type": "string"
        }
      ],
      "name": "setName",
      "outputs": [],
      "stateMutability": "nonpayable",
      "type": "function"
    },
    {
      "inputs": [
        {
          "internalType": "bytes32",
          "name": "node",
          "type": "bytes32"
        },
        {
          "internalType": "bytes32",
          "name": "x",
          "type": "bytes32"
        },
        {
          "internalType": "bytes32",
          "name": "y",
          "type": "bytes32"
        }
      ],
      "name": "setPubkey",
      "outputs": [],
      "stateMutability": "nonpayable",
      "type": "function"
    },
    {
      "inputs": [
        {
          "internalType": "bytes32",
          "name": "node",
          "type": "bytes32"
        },
        {
          "internalType": "string",
          "name": "key",
          "type": "string"
        },
        {
          "internalType": "string",
          "name": "value",
          "type": "string"
        }
      ],
      "name": "setText",
      "outputs": [],
      "stateMutability": "nonpayable",
      "type": "function"
    },
    {
      "inputs": [
        {
          "internalType": "bytes32",
          "name": "node",
          "type": "bytes32"
        },
        {
          "internalType": "bytes",
          "name": "hash",
          "type": "bytes"
        }
      ],
      "name": "setZonehash",
      "outputs": [],
      "stateMutability": "nonpayable",
      "type": "function"
    },
    {
      "inputs": [
        {
          "internalType": "bytes4",
          "name": "interfaceID",
          "type": "bytes4"
        }
      ],
      "name": "supportsInterface",
      "outputs": [
        {
          "internalType": "bool",
          "name": "",
          "type": "bool"
        }
      ],
      "stateMutability": "pure",
      "type": "function"
    },
    {
      "inputs": [
        {
          "internalType": "bytes32",
          "name": "node",
          "type": "bytes32"
        },
        {
          "internalType": "string",
          "name": "key",
          "type": "string"
        }
      ],
      "name": "text",
      "outputs": [
        {
          "internalType": "string",
          "name": "",
          "type": "string"
        }
      ],
      "stateMutability": "view",
      "type": "function"
    },
    {
      "inputs": [
        {
          "internalType": "bytes32",
          "name": "node",
          "type": "bytes32"
        }
      ],
      "name": "zonehash",
      "outputs": [
        {
          "internalType": "bytes",
          "name": "",
          "type": "bytes"
        }
      ],
      "stateMutability": "view",
      "type": "function"
    }
  ],
  "transactionHash": "0x02c366b54bb0ff7e3cd11c8e8228774734070be7b6b988c0bb5d8c11958be922",
  "args": [
    "0x968083706bf28e772c0E819C8b41d6dcca4431e2",
    "0x0000000000000000000000000000000000000000"
  ],
  "numDeployments": 1,
  "solcInputHash": "5e15c453355461e316e74dfad4851795",
  "bytecode": "0x60806040523480156200001157600080fd5b5060405162002da938038062002da983398101604081905262000034916200007f565b600b80546001600160a01b039384166001600160a01b031991821617909155600c8054929093169116179055620000be565b6001600160a01b03811681146200007c57600080fd5b50565b600080604083850312156200009357600080fd5b8251620000a08162000066565b6020840151909250620000b38162000066565b809150509250929050565b612cdb80620000ce6000396000f3fe608060405234801561001057600080fd5b50600436106101ae5760003560e01c806377372213116100ee578063bc1c58d111610097578063d5fa2b0011610071578063d5fa2b0014610410578063e59d895d14610423578063e985e9c514610436578063f1cb7e061461047f57600080fd5b8063bc1c58d1146103ad578063c8690233146103c0578063ce3decdc146103fd57600080fd5b8063a8fa5682116100c8578063a8fa568214610367578063ac9650d81461037a578063ad5780af1461039a57600080fd5b8063773722131461032e5780638b95dd7114610341578063a22cb4651461035457600080fd5b8063304e6ade1161015b57806359d1d43c1161013557806359d1d43c146102d55780635c98042b146102f5578063623195b014610308578063691f34311461031b57600080fd5b8063304e6ade1461026f5780633b3b57de146102825780634cbf6ba41461029557600080fd5b8063124a319c1161018c578063124a319c146102035780632203ab561461023b57806329cd62ea1461025c57600080fd5b806301ffc9a7146101b35780630af179d7146101db57806310f13a8c146101f0575b600080fd5b6101c66101c1366004612391565b610492565b60405190151581526020015b60405180910390f35b6101ee6101e93660046123ee565b6104ee565b005b6101ee6101fe36600461243a565b6106d9565b6102166102113660046124b4565b610786565b60405173ffffffffffffffffffffffffffffffffffffffff90911681526020016101d2565b61024e6102493660046124e0565b610b03565b6040516101d292919061257c565b6101ee61026a366004612595565b610c1e565b6101ee61027d3660046123ee565b610c9e565b6102166102903660046125c1565b610cfd565b6101c66102a33660046124e0565b600091825260066020908152604080842060048352818520548552825280842092845291905290205461ffff16151590565b6102e86102e33660046123ee565b610d30565b6040516101d291906125da565b6102e86103033660046125c1565b610df5565b6101ee6103163660046125ed565b610e97565b6102e86103293660046125c1565b610f18565b6101ee61033c3660046123ee565b610f35565b6101ee61034f36600461266f565b610f94565b6101ee610362366004612773565b61106c565b6102e86103753660046127b1565b6111ad565b61038d6103883660046127f1565b6111f0565b6040516101d29190612866565b6101ee6103a83660046125c1565b61130b565b6102e86103bb3660046125c1565b61136c565b6103e86103ce3660046125c1565b600090815260096020526040902080546001909101549091565b604080519283526020830191909152016101d2565b6101ee61040b3660046123ee565b611389565b6101ee61041e3660046128e6565b611495565b6101ee61043136600461290b565b6114bc565b6101c6610444366004612940565b73ffffffffffffffffffffffffffffffffffffffff9182166000908152600d6020908152604080832093909416825291909152205460ff1690565b6102e861048d3660046124e0565b611586565b60007fffffffff0000000000000000000000000000000000000000000000000000000082167fac9650d80000000000000000000000000000000000000000000000000000000014806104e857506104e882611634565b92915050565b826104f88161168a565b61050157600080fd5b60008060608060008061054e60008a8a8080601f01602080910402602001604051908101604052809392919081815260200183838082843760009201919091525092939250506118369050565b90505b805151602082015110156106745761ffff86166105b3578060400151955061057881611897565b93508360405160200161058b919061296e565b6040516020818303038152906040528051906020012091506105ac816118b8565b9250610666565b60006105be82611897565b9050816040015161ffff168761ffff161415806105e257506105e085826118d4565b155b156106645761063d8b86898d8d8080601f016020809104026020016040519081016040528093929190818152602001838380828437600092019190915250505060208801518c91506106359082906129b9565b8a51156118f2565b816040015196508160200151955080945084805190602001209250610661826118b8565b93505b505b61066f81611b34565b610551565b508251156106ce576106ce8984878b8b8080601f0160208091040260200160405190810160405280939291908181526020018383808284376000920191909152508b92506106c691508290508e6129b9565b8851156118f2565b505050505050505050565b846106e38161168a565b6106ec57600080fd5b8282600a600089815260200190815260200160002087876040516107119291906129d0565b90815260405190819003602001902061072b9290916121f4565b50848460405161073c9291906129d0565b6040518091039020867fd8c9334b1a9c2f9da342a0a2b32629c1a229b6445dad78947f674b44444a75508787604051610776929190612a29565b60405180910390a3505050505050565b60008281526007602090815260408083207fffffffff000000000000000000000000000000000000000000000000000000008516845290915281205473ffffffffffffffffffffffffffffffffffffffff1680156107e55790506104e8565b60006107f085610cfd565b905073ffffffffffffffffffffffffffffffffffffffff8116610818576000925050506104e8565b6040517f01ffc9a7000000000000000000000000000000000000000000000000000000006024820152600090819073ffffffffffffffffffffffffffffffffffffffff841690604401604080517fffffffffffffffffffffffffffffffffffffffffffffffffffffffffffffffe08184030181529181526020820180517bffffffffffffffffffffffffffffffffffffffffffffffffffffffff167f01ffc9a700000000000000000000000000000000000000000000000000000000179052516108e2919061296e565b600060405180830381855afa9150503d806000811461091d576040519150601f19603f3d011682016040523d82523d6000602084013e610922565b606091505b5091509150811580610935575060208151105b80610977575080601f8151811061094e5761094e612a3d565b01602001517fff0000000000000000000000000000000000000000000000000000000000000016155b156109895760009450505050506104e8565b6040517fffffffff000000000000000000000000000000000000000000000000000000008716602482015273ffffffffffffffffffffffffffffffffffffffff841690604401604080517fffffffffffffffffffffffffffffffffffffffffffffffffffffffffffffffe08184030181529181526020820180517bffffffffffffffffffffffffffffffffffffffffffffffffffffffff167f01ffc9a70000000000000000000000000000000000000000000000000000000017905251610a50919061296e565b600060405180830381855afa9150503d8060008114610a8b576040519150601f19603f3d011682016040523d82523d6000602084013e610a90565b606091505b509092509050811580610aa4575060208151105b80610ae6575080601f81518110610abd57610abd612a3d565b01602001517fff0000000000000000000000000000000000000000000000000000000000000016155b15610af85760009450505050506104e8565b509095945050505050565b600082815260208190526040812060609060015b848111610bfe5780851615801590610b47575060008181526020839052604081208054610b4390612a6c565b9050115b15610bf65780826000838152602001908152602001600020808054610b6b90612a6c565b80601f0160208091040260200160405190810160405280929190818152602001828054610b9790612a6c565b8015610be45780601f10610bb957610100808354040283529160200191610be4565b820191906000526020600020905b815481529060010190602001808311610bc757829003601f168201915b50505050509050935093505050610c17565b60011b610b17565b5060006040518060200160405280600081525092509250505b9250929050565b82610c288161168a565b610c3157600080fd5b60408051808201825284815260208082018581526000888152600983528490209251835551600190920191909155815185815290810184905285917f1d6f5e03d3f63eb58751986629a5439baee5079ff04f345becb66e23eb154e4691015b60405180910390a250505050565b82610ca88161168a565b610cb157600080fd5b6000848152600260205260409020610cca9084846121f4565b50837fe379c1624ed7e714cc0937528a32359d69d5281337765313dba4e081b72d75788484604051610c90929190612a29565b600080610d0b83603c611586565b9050805160001415610d205750600092915050565b610d2981611c1c565b9392505050565b6060600a60008581526020019081526020016000208383604051610d559291906129d0565b90815260200160405180910390208054610d6e90612a6c565b80601f0160208091040260200160405190810160405280929190818152602001828054610d9a90612a6c565b8015610de75780601f10610dbc57610100808354040283529160200191610de7565b820191906000526020600020905b815481529060010190602001808311610dca57829003601f168201915b505050505090509392505050565b6000818152600360205260409020805460609190610e1290612a6c565b80601f0160208091040260200160405190810160405280929190818152602001828054610e3e90612a6c565b8015610e8b5780601f10610e6057610100808354040283529160200191610e8b565b820191906000526020600020905b815481529060010190602001808311610e6e57829003601f168201915b50505050509050919050565b83610ea18161168a565b610eaa57600080fd5b83610eb66001826129b9565b1615610ec157600080fd5b6000858152602081815260408083208784529091529020610ee39084846121f4565b50604051849086907faa121bbeef5f32f5961a2a28966e769023910fc9479059ee3495d4c1a696efe390600090a35050505050565b6000818152600860205260409020805460609190610e1290612a6c565b82610f3f8161168a565b610f4857600080fd5b6000848152600860205260409020610f619084846121f4565b50837fb7d29e911041e8d9b843369e890bcb72c9388692ba48b65ac54e7214c4c348f78484604051610c90929190612a29565b82610f9e8161168a565b610fa757600080fd5b837f65412581168e88a1e60c6459d7f44ae83ad0832e670826c05a4e2476b57af7528484604051610fd992919061257c565b60405180910390a2603c83141561103e57837f52d7d861f09ab3d26239d492e8968629f95e9e318cf0b73bfddc441522a15fd261101584611c1c565b60405173ffffffffffffffffffffffffffffffffffffffff909116815260200160405180910390a25b60008481526001602090815260408083208684528252909120835161106592850190612296565b5050505050565b3373ffffffffffffffffffffffffffffffffffffffff83161415611116576040517f08c379a000000000000000000000000000000000000000000000000000000000815260206004820152602960248201527f455243313135353a2073657474696e6720617070726f76616c2073746174757360448201527f20666f722073656c660000000000000000000000000000000000000000000000606482015260840160405180910390fd5b336000818152600d6020908152604080832073ffffffffffffffffffffffffffffffffffffffff87168085529083529281902080547fffffffffffffffffffffffffffffffffffffffffffffffffffffffffffffff001686151590811790915590519081529192917f17307eab39ab6107e8899845ad3d59bd9653f200f220920489ca2b5937696c31910160405180910390a35050565b6000838152600560209081526040808320600483528184205484528252808320858452825280832061ffff851684529091529020805460609190610d6e90612a6c565b60608167ffffffffffffffff81111561120b5761120b612640565b60405190808252806020026020018201604052801561123e57816020015b60608152602001906001900390816112295790505b50905060005b82811015611304576000803086868581811061126257611262612a3d565b90506020028101906112749190612ac0565b6040516112829291906129d0565b600060405180830381855af49150503d80600081146112bd576040519150601f19603f3d011682016040523d82523d6000602084013e6112c2565b606091505b5091509150816112d157600080fd5b808484815181106112e4576112e4612a3d565b6020026020010181905250505080806112fc90612b25565b915050611244565b5092915050565b806113158161168a565b61131e57600080fd5b600082815260046020526040812080549161133883612b25565b909155505060405182907fb757169b8492ca2f1c6619d9d76ce22803035c3b1d5f6930dffe7b127c1a198390600090a25050565b6000818152600260205260409020805460609190610e1290612a6c565b826113938161168a565b61139c57600080fd5b600084815260036020526040812080546113b590612a6c565b80601f01602080910402602001604051908101604052809291908181526020018280546113e190612a6c565b801561142e5780601f106114035761010080835404028352916020019161142e565b820191906000526020600020905b81548152906001019060200180831161141157829003601f168201915b5050506000888152600360205260409020929350611451929150869050856121f4565b50847f8f15ed4b723ef428f250961da8315675b507046737e19319fc1a4d81bfe87f8582868660405161148693929190612b5e565b60405180910390a25050505050565b8161149f8161168a565b6114a857600080fd5b6114b783603c61034f85611c44565b505050565b826114c68161168a565b6114cf57600080fd5b60008481526007602090815260408083207fffffffff0000000000000000000000000000000000000000000000000000000087168085529083529281902080547fffffffffffffffffffffffff00000000000000000000000000000000000000001673ffffffffffffffffffffffffffffffffffffffff8716908117909155905190815286917f7c69f06bea0bdef565b709e93a147836b0063ba2dd89f02d0b7e8d931e6a6daa910160405180910390a350505050565b600082815260016020908152604080832084845290915290208054606091906115ae90612a6c565b80601f01602080910402602001604051908101604052809291908181526020018280546115da90612a6c565b80156116275780601f106115fc57610100808354040283529160200191611627565b820191906000526020600020905b81548152906001019060200180831161160a57829003601f168201915b5050505050905092915050565b60007fffffffff0000000000000000000000000000000000000000000000000000000082167f59d1d43c0000000000000000000000000000000000000000000000000000000014806104e857506104e882611c7d565b600b546040517f02571be300000000000000000000000000000000000000000000000000000000815260048101839052600091829173ffffffffffffffffffffffffffffffffffffffff909116906302571be390602401602060405180830381865afa1580156116fe573d6000803e3d6000fd5b505050506040513d601f19601f820116820180604052508101906117229190612b8e565b600c5490915073ffffffffffffffffffffffffffffffffffffffff808316911614156117de57600c546040517f6352211e0000000000000000000000000000000000000000000000000000000081526004810185905273ffffffffffffffffffffffffffffffffffffffff90911690636352211e90602401602060405180830381865afa1580156117b7573d6000803e3d6000fd5b505050506040513d601f19601f820116820180604052508101906117db9190612b8e565b90505b73ffffffffffffffffffffffffffffffffffffffff8116331480610d29575073ffffffffffffffffffffffffffffffffffffffff81166000908152600d6020908152604080832033845290915290205460ff16610d29565b6118846040518060e001604052806060815260200160008152602001600061ffff168152602001600061ffff168152602001600063ffffffff16815260200160008152602001600081525090565b82815260c081018290526104e881611b34565b602081015181516060916104e8916118af9082611cd3565b84519190611d32565b60a081015160c08201516060916104e8916118af9082906129b9565b600081518351148015610d295750610d298360008460008751611da9565b60008781526004602090815260408220548851918901919091209091611919878787611d32565b90508315611a225760008a81526005602090815260408083208684528252808320858452825280832061ffff8c1684529091529020805461195990612a6c565b1590506119ad5760008a815260066020908152604080832086845282528083208584529091528120805461ffff169161199183612bab565b91906101000a81548161ffff021916908361ffff160217905550505b60008a81526005602090815260408083208684528252808320858452825280832061ffff8c16845290915281206119e39161230a565b897f03528ed0c2a3ebc993b12ce3c16bb382f9c7d88ef7d8a1bf290eaf35955a12078a8a604051611a15929190612be7565b60405180910390a2611b28565b60008a81526005602090815260408083208684528252808320858452825280832061ffff8c16845290915290208054611a5a90612a6c565b15159050611aaf5760008a815260066020908152604080832086845282528083208584529091528120805461ffff1691611a9383612c0d565b91906101000a81548161ffff021916908361ffff160217905550505b60008a81526005602090815260408083208684528252808320858452825280832061ffff8c16845282529091208251611aea92840190612296565b50897f52a608b3303a48862d07a73d82fa221318c0027fbbcfb1b2329bface3f19ff2b8a8a84604051611b1f93929190612c2f565b60405180910390a25b50505050505050505050565b60c08101516020820181905281515111611b4b5750565b6000611b5f82600001518360200151611cd3565b8260200151611b6e9190612c5e565b8251909150611b7d9082611dcc565b61ffff166040830152611b91600282612c5e565b8251909150611ba09082611dcc565b61ffff166060830152611bb4600282612c5e565b8251909150611bc39082611df4565b63ffffffff166080830152611bd9600482612c5e565b8251909150600090611beb9083611dcc565b61ffff169050611bfc600283612c5e565b60a084018190529150611c0f8183612c5e565b60c0909301929092525050565b60008151601414611c2c57600080fd5b50602001516c01000000000000000000000000900490565b6040805160148082528183019092526060916020820181803683375050506c010000000000000000000000009290920260208301525090565b60007fffffffff0000000000000000000000000000000000000000000000000000000082167fc86902330000000000000000000000000000000000000000000000000000000014806104e857506104e882611e1e565b6000815b83518110611ce757611ce7612c76565b6000611cf38583611e74565b60ff169050611d03816001612c5e565b611d0d9083612c5e565b915080611d1a5750611d20565b50611cd7565b611d2a83826129b9565b949350505050565b8251606090611d418385612c5e565b1115611d4c57600080fd5b60008267ffffffffffffffff811115611d6757611d67612640565b6040519080825280601f01601f191660200182016040528015611d91576020820181803683370190505b50905060208082019086860101610af8828287611e98565b6000611db6848484611f0c565b611dc1878785611f0c565b149695505050505050565b8151600090611ddc836002612c5e565b1115611de757600080fd5b50016002015161ffff1690565b8151600090611e04836004612c5e565b1115611e0f57600080fd5b50016004015163ffffffff1690565b60007fffffffff0000000000000000000000000000000000000000000000000000000082167f691f34310000000000000000000000000000000000000000000000000000000014806104e857506104e882611f30565b6000828281518110611e8857611e88612a3d565b016020015160f81c905092915050565b60208110611ed05781518352611eaf602084612c5e565b9250611ebc602083612c5e565b9150611ec96020826129b9565b9050611e98565b905182516020929092036101000a7fffffffffffffffffffffffffffffffffffffffffffffffffffffffffffffffff0180199091169116179052565b8251600090611f1b8385612c5e565b1115611f2657600080fd5b5091016020012090565b60007fffffffff0000000000000000000000000000000000000000000000000000000082167f124a319c0000000000000000000000000000000000000000000000000000000014806104e857506104e88260007fffffffff0000000000000000000000000000000000000000000000000000000082167fa8fa568200000000000000000000000000000000000000000000000000000000148061201457507fffffffff0000000000000000000000000000000000000000000000000000000082167f5c98042b00000000000000000000000000000000000000000000000000000000145b806104e857506104e88260007fffffffff0000000000000000000000000000000000000000000000000000000082167fbc1c58d10000000000000000000000000000000000000000000000000000000014806104e857506104e88260007fffffffff0000000000000000000000000000000000000000000000000000000082167f3b3b57de00000000000000000000000000000000000000000000000000000000148061210257507fffffffff0000000000000000000000000000000000000000000000000000000082167ff1cb7e0600000000000000000000000000000000000000000000000000000000145b806104e857506104e88260007fffffffff0000000000000000000000000000000000000000000000000000000082167f2203ab560000000000000000000000000000000000000000000000000000000014806104e857506104e88260007fffffffff0000000000000000000000000000000000000000000000000000000082167fac9650d80000000000000000000000000000000000000000000000000000000014806104e857507f01ffc9a7000000000000000000000000000000000000000000000000000000007fffffffff000000000000000000000000000000000000000000000000000000008316146104e8565b82805461220090612a6c565b90600052602060002090601f0160209004810192826122225760008555612286565b82601f10612259578280017fffffffffffffffffffffffffffffffffffffffffffffffffffffffffffffff00823516178555612286565b82800160010185558215612286579182015b8281111561228657823582559160200191906001019061226b565b50612292929150612347565b5090565b8280546122a290612a6c565b90600052602060002090601f0160209004810192826122c45760008555612286565b82601f106122dd57805160ff1916838001178555612286565b82800160010185558215612286579182015b828111156122865782518255916020019190600101906122ef565b50805461231690612a6c565b6000825580601f10612326575050565b601f0160209004906000526020600020908101906123449190612347565b50565b5b808211156122925760008155600101612348565b80357fffffffff000000000000000000000000000000000000000000000000000000008116811461238c57600080fd5b919050565b6000602082840312156123a357600080fd5b610d298261235c565b60008083601f8401126123be57600080fd5b50813567ffffffffffffffff8111156123d657600080fd5b602083019150836020828501011115610c1757600080fd5b60008060006040848603121561240357600080fd5b83359250602084013567ffffffffffffffff81111561242157600080fd5b61242d868287016123ac565b9497909650939450505050565b60008060008060006060868803121561245257600080fd5b85359450602086013567ffffffffffffffff8082111561247157600080fd5b61247d89838a016123ac565b9096509450604088013591508082111561249657600080fd5b506124a3888289016123ac565b969995985093965092949392505050565b600080604083850312156124c757600080fd5b823591506124d76020840161235c565b90509250929050565b600080604083850312156124f357600080fd5b50508035926020909101359150565b60005b8381101561251d578181015183820152602001612505565b8381111561252c576000848401525b50505050565b6000815180845261254a816020860160208601612502565b601f017fffffffffffffffffffffffffffffffffffffffffffffffffffffffffffffffe0169290920160200192915050565b828152604060208201526000611d2a6040830184612532565b6000806000606084860312156125aa57600080fd5b505081359360208301359350604090920135919050565b6000602082840312156125d357600080fd5b5035919050565b602081526000610d296020830184612532565b6000806000806060858703121561260357600080fd5b8435935060208501359250604085013567ffffffffffffffff81111561262857600080fd5b612634878288016123ac565b95989497509550505050565b7f4e487b7100000000000000000000000000000000000000000000000000000000600052604160045260246000fd5b60008060006060848603121561268457600080fd5b8335925060208401359150604084013567ffffffffffffffff808211156126aa57600080fd5b818601915086601f8301126126be57600080fd5b8135818111156126d0576126d0612640565b604051601f82017fffffffffffffffffffffffffffffffffffffffffffffffffffffffffffffffe0908116603f0116810190838211818310171561271657612716612640565b8160405282815289602084870101111561272f57600080fd5b8260208601602083013760006020848301015280955050505050509250925092565b73ffffffffffffffffffffffffffffffffffffffff8116811461234457600080fd5b6000806040838503121561278657600080fd5b823561279181612751565b9150602083013580151581146127a657600080fd5b809150509250929050565b6000806000606084860312156127c657600080fd5b8335925060208401359150604084013561ffff811681146127e657600080fd5b809150509250925092565b6000806020838503121561280457600080fd5b823567ffffffffffffffff8082111561281c57600080fd5b818501915085601f83011261283057600080fd5b81358181111561283f57600080fd5b8660208260051b850101111561285457600080fd5b60209290920196919550909350505050565b6000602080830181845280855180835260408601915060408160051b870101925083870160005b828110156128d9577fffffffffffffffffffffffffffffffffffffffffffffffffffffffffffffffc08886030184526128c7858351612532565b9450928501929085019060010161288d565b5092979650505050505050565b600080604083850312156128f957600080fd5b8235915060208301356127a681612751565b60008060006060848603121561292057600080fd5b833592506129306020850161235c565b915060408401356127e681612751565b6000806040838503121561295357600080fd5b823561295e81612751565b915060208301356127a681612751565b60008251612980818460208701612502565b9190910192915050565b7f4e487b7100000000000000000000000000000000000000000000000000000000600052601160045260246000fd5b6000828210156129cb576129cb61298a565b500390565b8183823760009101908152919050565b8183528181602085013750600060208284010152600060207fffffffffffffffffffffffffffffffffffffffffffffffffffffffffffffffe0601f840116840101905092915050565b602081526000611d2a6020830184866129e0565b7f4e487b7100000000000000000000000000000000000000000000000000000000600052603260045260246000fd5b600181811c90821680612a8057607f821691505b60208210811415612aba577f4e487b7100000000000000000000000000000000000000000000000000000000600052602260045260246000fd5b50919050565b60008083357fffffffffffffffffffffffffffffffffffffffffffffffffffffffffffffffe1843603018112612af557600080fd5b83018035915067ffffffffffffffff821115612b1057600080fd5b602001915036819003821315610c1757600080fd5b60007fffffffffffffffffffffffffffffffffffffffffffffffffffffffffffffffff821415612b5757612b5761298a565b5060010190565b604081526000612b716040830186612532565b8281036020840152612b848185876129e0565b9695505050505050565b600060208284031215612ba057600080fd5b8151610d2981612751565b600061ffff821680612bbf57612bbf61298a565b7fffffffffffffffffffffffffffffffffffffffffffffffffffffffffffffffff0192915050565b604081526000612bfa6040830185612532565b905061ffff831660208301529392505050565b600061ffff80831681811415612c2557612c2561298a565b6001019392505050565b606081526000612c426060830186612532565b61ffff851660208401528281036040840152612b848185612532565b60008219821115612c7157612c7161298a565b500190565b7f4e487b7100000000000000000000000000000000000000000000000000000000600052600160045260246000fdfea26469706673582212204283fde76b0cdafe756cbeb766366bb87086854f35c98f62b61374a0ac22b6b264736f6c634300080c0033",
  "devdoc": {
    "kind": "dev",
    "methods": {
      "ABI(bytes32,uint256)": {
        "params": {
          "contentTypes": "A bitwise OR of the ABI formats accepted by the caller.",
          "node": "The ENS node to query"
        },
        "returns": {
          "_0": "contentType The content type of the return value",
          "_1": "data The ABI data"
        }
      },
      "addr(bytes32)": {
        "params": {
          "node": "The ENS node to query."
        },
        "returns": {
          "_0": "The associated address."
        }
      },
      "clearDNSZone(bytes32)": {
        "params": {
          "node": "the namehash of the node for which to clear the zone"
        }
      },
      "contenthash(bytes32)": {
        "params": {
          "node": "The ENS node to query."
        },
        "returns": {
          "_0": "The associated contenthash."
        }
      },
      "dnsRecord(bytes32,bytes32,uint16)": {
        "params": {
          "name": "the keccak-256 hash of the fully-qualified name for which to fetch the record",
          "node": "the namehash of the node for which to fetch the record",
          "resource": "the ID of the resource as per https://en.wikipedia.org/wiki/List_of_DNS_record_types"
        },
        "returns": {
          "_0": "the DNS record in wire format if present, otherwise empty"
        }
      },
      "hasDNSRecords(bytes32,bytes32)": {
        "params": {
          "name": "the namehash of the node for which to check the records",
          "node": "the namehash of the node for which to check the records"
        }
      },
      "interfaceImplementer(bytes32,bytes4)": {
        "params": {
          "interfaceID": "The EIP 165 interface ID to check for.",
          "node": "The ENS node to query."
        },
        "returns": {
          "_0": "The address that implements this interface, or 0 if the interface is unsupported."
        }
      },
      "isApprovedForAll(address,address)": {
        "details": "See {IERC1155-isApprovedForAll}."
      },
      "name(bytes32)": {
        "params": {
          "node": "The ENS node to query."
        },
        "returns": {
          "_0": "The associated name."
        }
      },
      "pubkey(bytes32)": {
        "params": {
          "node": "The ENS node to query"
        },
        "returns": {
          "x": "The X coordinate of the curve point for the public key.",
          "y": "The Y coordinate of the curve point for the public key."
        }
      },
      "setABI(bytes32,uint256,bytes)": {
        "params": {
          "contentType": "The content type of the ABI",
          "data": "The ABI data.",
          "node": "The node to update."
        }
      },
      "setAddr(bytes32,address)": {
        "params": {
          "a": "The address to set.",
          "node": "The node to update."
        }
      },
      "setApprovalForAll(address,bool)": {
        "details": "See {IERC1155-setApprovalForAll}."
      },
      "setContenthash(bytes32,bytes)": {
        "params": {
          "hash": "The contenthash to set",
          "node": "The node to update."
        }
      },
      "setDNSRecords(bytes32,bytes)": {
        "params": {
          "data": "the DNS wire format records to set",
          "node": "the namehash of the node for which to set the records"
        }
      },
      "setInterface(bytes32,bytes4,address)": {
        "params": {
          "implementer": "The address of a contract that implements this interface for this node.",
          "interfaceID": "The EIP 165 interface ID.",
          "node": "The node to update."
        }
      },
      "setName(bytes32,string)": {
        "params": {
          "node": "The node to update."
        }
      },
      "setPubkey(bytes32,bytes32,bytes32)": {
        "params": {
          "node": "The ENS node to query",
          "x": "the X coordinate of the curve point for the public key.",
          "y": "the Y coordinate of the curve point for the public key."
        }
      },
      "setText(bytes32,string,string)": {
        "params": {
          "key": "The key to set.",
          "node": "The node to update.",
          "value": "The text data value to set."
        }
      },
      "setZonehash(bytes32,bytes)": {
        "params": {
          "hash": "The zonehash to set",
          "node": "The node to update."
        }
      },
      "text(bytes32,string)": {
        "params": {
          "key": "The text data key to query.",
          "node": "The ENS node to query."
        },
        "returns": {
          "_0": "The associated text data."
        }
      },
      "zonehash(bytes32)": {
        "params": {
          "node": "The ENS node to query."
        },
        "returns": {
          "_0": "The associated contenthash."
        }
      }
    },
    "version": 1
  },
  "userdoc": {
    "kind": "user",
    "methods": {
      "ABI(bytes32,uint256)": {
        "notice": "Returns the ABI associated with an ENS node. Defined in EIP205."
      },
      "addr(bytes32)": {
        "notice": "Returns the address associated with an ENS node."
      },
      "clearDNSZone(bytes32)": {
        "notice": "Clear all information for a DNS zone."
      },
      "contenthash(bytes32)": {
        "notice": "Returns the contenthash associated with an ENS node."
      },
      "dnsRecord(bytes32,bytes32,uint16)": {
        "notice": "Obtain a DNS record."
      },
      "hasDNSRecords(bytes32,bytes32)": {
        "notice": "Check if a given node has records."
      },
      "interfaceImplementer(bytes32,bytes4)": {
        "notice": "Returns the address of a contract that implements the specified interface for this name. If an implementer has not been set for this interfaceID and name, the resolver will query the contract at `addr()`. If `addr()` is set, a contract exists at that address, and that contract implements EIP165 and returns `true` for the specified interfaceID, its address will be returned."
      },
      "name(bytes32)": {
        "notice": "Returns the name associated with an ENS node, for reverse records. Defined in EIP181."
      },
      "pubkey(bytes32)": {
        "notice": "Returns the SECP256k1 public key associated with an ENS node. Defined in EIP 619."
      },
      "setABI(bytes32,uint256,bytes)": {
        "notice": "Sets the ABI associated with an ENS node. Nodes may have one ABI of each content type. To remove an ABI, set it to the empty string."
      },
      "setAddr(bytes32,address)": {
        "notice": "Sets the address associated with an ENS node. May only be called by the owner of that node in the ENS registry."
      },
      "setContenthash(bytes32,bytes)": {
        "notice": "Sets the contenthash associated with an ENS node. May only be called by the owner of that node in the ENS registry."
      },
      "setDNSRecords(bytes32,bytes)": {
        "notice": "Set one or more DNS records.  Records are supplied in wire-format. Records with the same node/name/resource must be supplied one after the other to ensure the data is updated correctly. For example, if the data was supplied:     a.example.com IN A 1.2.3.4     a.example.com IN A 5.6.7.8     www.example.com IN CNAME a.example.com. then this would store the two A records for a.example.com correctly as a single RRSET, however if the data was supplied:     a.example.com IN A 1.2.3.4     www.example.com IN CNAME a.example.com.     a.example.com IN A 5.6.7.8 then this would store the first A record, the CNAME, then the second A record which would overwrite the first."
      },
      "setInterface(bytes32,bytes4,address)": {
        "notice": "Sets an interface associated with a name. Setting the address to 0 restores the default behaviour of querying the contract at `addr()` for interface support."
      },
      "setName(bytes32,string)": {
        "notice": "Sets the name associated with an ENS node, for reverse records. May only be called by the owner of that node in the ENS registry."
      },
      "setPubkey(bytes32,bytes32,bytes32)": {
        "notice": "Sets the SECP256k1 public key associated with an ENS node."
      },
      "setText(bytes32,string,string)": {
        "notice": "Sets the text data associated with an ENS node and key. May only be called by the owner of that node in the ENS registry."
      },
      "setZonehash(bytes32,bytes)": {
        "notice": "setZonehash sets the hash for the zone. May only be called by the owner of that node in the ENS registry."
      },
      "text(bytes32,string)": {
        "notice": "Returns the text data associated with an ENS node and key."
      },
      "zonehash(bytes32)": {
        "notice": "zonehash obtains the hash for the zone."
      }
    },
    "notice": "A simple resolver anyone can use; only allows the owner of a node to set its address.",
    "version": 1
  },
  "storageLayout": {
    "storage": [
      {
        "astId": 14476,
        "contract": "contracts/resolvers/PublicResolver.sol:PublicResolver",
        "label": "abis",
        "offset": 0,
        "slot": "0",
        "type": "t_mapping(t_bytes32,t_mapping(t_uint256,t_bytes_storage))"
      },
      {
        "astId": 14620,
        "contract": "contracts/resolvers/PublicResolver.sol:PublicResolver",
        "label": "_addresses",
        "offset": 0,
        "slot": "1",
        "type": "t_mapping(t_bytes32,t_mapping(t_uint256,t_bytes_storage))"
      },
      {
        "astId": 14801,
        "contract": "contracts/resolvers/PublicResolver.sol:PublicResolver",
        "label": "hashes",
        "offset": 0,
        "slot": "2",
        "type": "t_mapping(t_bytes32,t_bytes_storage)"
      },
      {
        "astId": 14881,
        "contract": "contracts/resolvers/PublicResolver.sol:PublicResolver",
        "label": "zonehashes",
        "offset": 0,
        "slot": "3",
        "type": "t_mapping(t_bytes32,t_bytes_storage)"
      },
      {
        "astId": 14885,
        "contract": "contracts/resolvers/PublicResolver.sol:PublicResolver",
        "label": "versions",
        "offset": 0,
        "slot": "4",
        "type": "t_mapping(t_bytes32,t_uint256)"
      },
      {
        "astId": 14895,
        "contract": "contracts/resolvers/PublicResolver.sol:PublicResolver",
        "label": "records",
        "offset": 0,
        "slot": "5",
        "type": "t_mapping(t_bytes32,t_mapping(t_uint256,t_mapping(t_bytes32,t_mapping(t_uint16,t_bytes_storage))))"
      },
      {
        "astId": 14903,
        "contract": "contracts/resolvers/PublicResolver.sol:PublicResolver",
        "label": "nameEntriesCount",
        "offset": 0,
        "slot": "6",
        "type": "t_mapping(t_bytes32,t_mapping(t_uint256,t_mapping(t_bytes32,t_uint16)))"
      },
      {
        "astId": 15570,
        "contract": "contracts/resolvers/PublicResolver.sol:PublicResolver",
        "label": "interfaces",
        "offset": 0,
        "slot": "7",
        "type": "t_mapping(t_bytes32,t_mapping(t_bytes4,t_address))"
      },
      {
        "astId": 15752,
        "contract": "contracts/resolvers/PublicResolver.sol:PublicResolver",
        "label": "names",
        "offset": 0,
        "slot": "8",
        "type": "t_mapping(t_bytes32,t_string_storage)"
      },
      {
        "astId": 15829,
        "contract": "contracts/resolvers/PublicResolver.sol:PublicResolver",
        "label": "pubkeys",
        "offset": 0,
        "slot": "9",
        "type": "t_mapping(t_bytes32,t_struct(PublicKey)15824_storage)"
      },
      {
        "astId": 15916,
        "contract": "contracts/resolvers/PublicResolver.sol:PublicResolver",
        "label": "texts",
        "offset": 0,
        "slot": "10",
        "type": "t_mapping(t_bytes32,t_mapping(t_string_memory_ptr,t_string_storage))"
      },
      {
        "astId": 14085,
        "contract": "contracts/resolvers/PublicResolver.sol:PublicResolver",
        "label": "ens",
        "offset": 0,
        "slot": "11",
        "type": "t_contract(ENS)12653"
      },
      {
        "astId": 14088,
        "contract": "contracts/resolvers/PublicResolver.sol:PublicResolver",
        "label": "nameWrapper",
        "offset": 0,
        "slot": "12",
        "type": "t_contract(INameWrapper)14063"
      },
      {
        "astId": 14095,
        "contract": "contracts/resolvers/PublicResolver.sol:PublicResolver",
        "label": "_operatorApprovals",
        "offset": 0,
        "slot": "13",
        "type": "t_mapping(t_address,t_mapping(t_address,t_bool))"
      }
    ],
    "types": {
      "t_address": {
        "encoding": "inplace",
        "label": "address",
        "numberOfBytes": "20"
      },
      "t_bool": {
        "encoding": "inplace",
        "label": "bool",
        "numberOfBytes": "1"
      },
      "t_bytes32": {
        "encoding": "inplace",
        "label": "bytes32",
        "numberOfBytes": "32"
      },
      "t_bytes4": {
        "encoding": "inplace",
        "label": "bytes4",
        "numberOfBytes": "4"
      },
      "t_bytes_storage": {
        "encoding": "bytes",
        "label": "bytes",
        "numberOfBytes": "32"
      },
      "t_contract(ENS)12653": {
        "encoding": "inplace",
        "label": "contract ENS",
        "numberOfBytes": "20"
      },
      "t_contract(INameWrapper)14063": {
        "encoding": "inplace",
        "label": "contract INameWrapper",
        "numberOfBytes": "20"
      },
      "t_mapping(t_address,t_bool)": {
        "encoding": "mapping",
        "key": "t_address",
        "label": "mapping(address => bool)",
        "numberOfBytes": "32",
        "value": "t_bool"
      },
      "t_mapping(t_address,t_mapping(t_address,t_bool))": {
        "encoding": "mapping",
        "key": "t_address",
        "label": "mapping(address => mapping(address => bool))",
        "numberOfBytes": "32",
        "value": "t_mapping(t_address,t_bool)"
      },
      "t_mapping(t_bytes32,t_bytes_storage)": {
        "encoding": "mapping",
        "key": "t_bytes32",
        "label": "mapping(bytes32 => bytes)",
        "numberOfBytes": "32",
        "value": "t_bytes_storage"
      },
      "t_mapping(t_bytes32,t_mapping(t_bytes4,t_address))": {
        "encoding": "mapping",
        "key": "t_bytes32",
        "label": "mapping(bytes32 => mapping(bytes4 => address))",
        "numberOfBytes": "32",
        "value": "t_mapping(t_bytes4,t_address)"
      },
      "t_mapping(t_bytes32,t_mapping(t_string_memory_ptr,t_string_storage))": {
        "encoding": "mapping",
        "key": "t_bytes32",
        "label": "mapping(bytes32 => mapping(string => string))",
        "numberOfBytes": "32",
        "value": "t_mapping(t_string_memory_ptr,t_string_storage)"
      },
      "t_mapping(t_bytes32,t_mapping(t_uint16,t_bytes_storage))": {
        "encoding": "mapping",
        "key": "t_bytes32",
        "label": "mapping(bytes32 => mapping(uint16 => bytes))",
        "numberOfBytes": "32",
        "value": "t_mapping(t_uint16,t_bytes_storage)"
      },
      "t_mapping(t_bytes32,t_mapping(t_uint256,t_bytes_storage))": {
        "encoding": "mapping",
        "key": "t_bytes32",
        "label": "mapping(bytes32 => mapping(uint256 => bytes))",
        "numberOfBytes": "32",
        "value": "t_mapping(t_uint256,t_bytes_storage)"
      },
      "t_mapping(t_bytes32,t_mapping(t_uint256,t_mapping(t_bytes32,t_mapping(t_uint16,t_bytes_storage))))": {
        "encoding": "mapping",
        "key": "t_bytes32",
        "label": "mapping(bytes32 => mapping(uint256 => mapping(bytes32 => mapping(uint16 => bytes))))",
        "numberOfBytes": "32",
        "value": "t_mapping(t_uint256,t_mapping(t_bytes32,t_mapping(t_uint16,t_bytes_storage)))"
      },
      "t_mapping(t_bytes32,t_mapping(t_uint256,t_mapping(t_bytes32,t_uint16)))": {
        "encoding": "mapping",
        "key": "t_bytes32",
        "label": "mapping(bytes32 => mapping(uint256 => mapping(bytes32 => uint16)))",
        "numberOfBytes": "32",
        "value": "t_mapping(t_uint256,t_mapping(t_bytes32,t_uint16))"
      },
      "t_mapping(t_bytes32,t_string_storage)": {
        "encoding": "mapping",
        "key": "t_bytes32",
        "label": "mapping(bytes32 => string)",
        "numberOfBytes": "32",
        "value": "t_string_storage"
      },
      "t_mapping(t_bytes32,t_struct(PublicKey)15824_storage)": {
        "encoding": "mapping",
        "key": "t_bytes32",
        "label": "mapping(bytes32 => struct PubkeyResolver.PublicKey)",
        "numberOfBytes": "32",
        "value": "t_struct(PublicKey)15824_storage"
      },
      "t_mapping(t_bytes32,t_uint16)": {
        "encoding": "mapping",
        "key": "t_bytes32",
        "label": "mapping(bytes32 => uint16)",
        "numberOfBytes": "32",
        "value": "t_uint16"
      },
      "t_mapping(t_bytes32,t_uint256)": {
        "encoding": "mapping",
        "key": "t_bytes32",
        "label": "mapping(bytes32 => uint256)",
        "numberOfBytes": "32",
        "value": "t_uint256"
      },
      "t_mapping(t_bytes4,t_address)": {
        "encoding": "mapping",
        "key": "t_bytes4",
        "label": "mapping(bytes4 => address)",
        "numberOfBytes": "32",
        "value": "t_address"
      },
      "t_mapping(t_string_memory_ptr,t_string_storage)": {
        "encoding": "mapping",
        "key": "t_string_memory_ptr",
        "label": "mapping(string => string)",
        "numberOfBytes": "32",
        "value": "t_string_storage"
      },
      "t_mapping(t_uint16,t_bytes_storage)": {
        "encoding": "mapping",
        "key": "t_uint16",
        "label": "mapping(uint16 => bytes)",
        "numberOfBytes": "32",
        "value": "t_bytes_storage"
      },
      "t_mapping(t_uint256,t_bytes_storage)": {
        "encoding": "mapping",
        "key": "t_uint256",
        "label": "mapping(uint256 => bytes)",
        "numberOfBytes": "32",
        "value": "t_bytes_storage"
      },
      "t_mapping(t_uint256,t_mapping(t_bytes32,t_mapping(t_uint16,t_bytes_storage)))": {
        "encoding": "mapping",
        "key": "t_uint256",
        "label": "mapping(uint256 => mapping(bytes32 => mapping(uint16 => bytes)))",
        "numberOfBytes": "32",
        "value": "t_mapping(t_bytes32,t_mapping(t_uint16,t_bytes_storage))"
      },
      "t_mapping(t_uint256,t_mapping(t_bytes32,t_uint16))": {
        "encoding": "mapping",
        "key": "t_uint256",
        "label": "mapping(uint256 => mapping(bytes32 => uint16))",
        "numberOfBytes": "32",
        "value": "t_mapping(t_bytes32,t_uint16)"
      },
      "t_string_memory_ptr": {
        "encoding": "bytes",
        "label": "string",
        "numberOfBytes": "32"
      },
      "t_string_storage": {
        "encoding": "bytes",
        "label": "string",
        "numberOfBytes": "32"
      },
      "t_struct(PublicKey)15824_storage": {
        "encoding": "inplace",
        "label": "struct PubkeyResolver.PublicKey",
        "members": [
          {
            "astId": 15821,
            "contract": "contracts/resolvers/PublicResolver.sol:PublicResolver",
            "label": "x",
            "offset": 0,
            "slot": "0",
            "type": "t_bytes32"
          },
          {
            "astId": 15823,
            "contract": "contracts/resolvers/PublicResolver.sol:PublicResolver",
            "label": "y",
            "offset": 0,
            "slot": "1",
            "type": "t_bytes32"
          }
        ],
        "numberOfBytes": "64"
      },
      "t_uint16": {
        "encoding": "inplace",
        "label": "uint16",
        "numberOfBytes": "2"
      },
      "t_uint256": {
        "encoding": "inplace",
        "label": "uint256",
        "numberOfBytes": "32"
      }
    }
  }
}